{
  "contractName": "PublicResolver",
  "abi": [
    {
      "inputs": [
        {
          "internalType": "contract ENS",
          "name": "_ens",
          "type": "address"
        }
      ],
      "stateMutability": "nonpayable",
      "type": "constructor"
    },
    {
      "anonymous": false,
      "inputs": [
        {
          "indexed": true,
          "internalType": "bytes32",
          "name": "node",
          "type": "bytes32"
        },
        {
          "indexed": true,
          "internalType": "uint256",
          "name": "contentType",
          "type": "uint256"
        }
      ],
      "name": "ABIChanged",
      "type": "event"
    },
    {
      "anonymous": false,
      "inputs": [
        {
          "indexed": true,
          "internalType": "bytes32",
          "name": "node",
          "type": "bytes32"
        },
        {
          "indexed": false,
          "internalType": "address",
          "name": "a",
          "type": "address"
        }
      ],
      "name": "AddrChanged",
      "type": "event"
    },
    {
      "anonymous": false,
      "inputs": [
        {
          "indexed": true,
          "internalType": "bytes32",
          "name": "node",
          "type": "bytes32"
        },
        {
          "indexed": false,
          "internalType": "uint256",
          "name": "coinType",
          "type": "uint256"
        },
        {
          "indexed": false,
          "internalType": "bytes",
          "name": "newAddress",
          "type": "bytes"
        }
      ],
      "name": "AddressChanged",
      "type": "event"
    },
    {
      "anonymous": false,
      "inputs": [
        {
          "indexed": true,
          "internalType": "bytes32",
          "name": "node",
          "type": "bytes32"
        },
        {
          "indexed": true,
          "internalType": "address",
          "name": "owner",
          "type": "address"
        },
        {
          "indexed": true,
          "internalType": "address",
          "name": "target",
          "type": "address"
        },
        {
          "indexed": false,
          "internalType": "bool",
          "name": "isAuthorised",
          "type": "bool"
        }
      ],
      "name": "AuthorisationChanged",
      "type": "event"
    },
    {
      "anonymous": false,
      "inputs": [
        {
          "indexed": true,
          "internalType": "bytes32",
          "name": "node",
          "type": "bytes32"
        },
        {
          "indexed": false,
          "internalType": "bytes",
          "name": "hash",
          "type": "bytes"
        }
      ],
      "name": "ContenthashChanged",
      "type": "event"
    },
    {
      "anonymous": false,
      "inputs": [
        {
          "indexed": true,
          "internalType": "bytes32",
          "name": "node",
          "type": "bytes32"
        },
        {
          "indexed": false,
          "internalType": "bytes",
          "name": "name",
          "type": "bytes"
        },
        {
          "indexed": false,
          "internalType": "uint16",
          "name": "resource",
          "type": "uint16"
        },
        {
          "indexed": false,
          "internalType": "bytes",
          "name": "record",
          "type": "bytes"
        }
      ],
      "name": "DNSRecordChanged",
      "type": "event"
    },
    {
      "anonymous": false,
      "inputs": [
        {
          "indexed": true,
          "internalType": "bytes32",
          "name": "node",
          "type": "bytes32"
        },
        {
          "indexed": false,
          "internalType": "bytes",
          "name": "name",
          "type": "bytes"
        },
        {
          "indexed": false,
          "internalType": "uint16",
          "name": "resource",
          "type": "uint16"
        }
      ],
      "name": "DNSRecordDeleted",
      "type": "event"
    },
    {
      "anonymous": false,
      "inputs": [
        {
          "indexed": true,
          "internalType": "bytes32",
          "name": "node",
          "type": "bytes32"
        }
      ],
      "name": "DNSZoneCleared",
      "type": "event"
    },
    {
      "anonymous": false,
      "inputs": [
        {
          "indexed": true,
          "internalType": "bytes32",
          "name": "node",
          "type": "bytes32"
        },
        {
          "indexed": false,
          "internalType": "bytes",
          "name": "lastzonehash",
          "type": "bytes"
        },
        {
          "indexed": false,
          "internalType": "bytes",
          "name": "zonehash",
          "type": "bytes"
        }
      ],
      "name": "DNSZonehashChanged",
      "type": "event"
    },
    {
      "anonymous": false,
      "inputs": [
        {
          "indexed": true,
          "internalType": "bytes32",
          "name": "node",
          "type": "bytes32"
        },
        {
          "indexed": true,
          "internalType": "bytes4",
          "name": "interfaceID",
          "type": "bytes4"
        },
        {
          "indexed": false,
          "internalType": "address",
          "name": "implementer",
          "type": "address"
        }
      ],
      "name": "InterfaceChanged",
      "type": "event"
    },
    {
      "anonymous": false,
      "inputs": [
        {
          "indexed": true,
          "internalType": "bytes32",
          "name": "node",
          "type": "bytes32"
        },
        {
          "indexed": false,
          "internalType": "string",
          "name": "name",
          "type": "string"
        }
      ],
      "name": "NameChanged",
      "type": "event"
    },
    {
      "anonymous": false,
      "inputs": [
        {
          "indexed": true,
          "internalType": "bytes32",
          "name": "node",
          "type": "bytes32"
        },
        {
          "indexed": false,
          "internalType": "bytes32",
          "name": "x",
          "type": "bytes32"
        },
        {
          "indexed": false,
          "internalType": "bytes32",
          "name": "y",
          "type": "bytes32"
        }
      ],
      "name": "PubkeyChanged",
      "type": "event"
    },
    {
      "anonymous": false,
      "inputs": [
        {
          "indexed": true,
          "internalType": "bytes32",
          "name": "node",
          "type": "bytes32"
        },
        {
          "indexed": true,
          "internalType": "string",
          "name": "indexedKey",
          "type": "string"
        },
        {
          "indexed": false,
          "internalType": "string",
          "name": "key",
          "type": "string"
        }
      ],
      "name": "TextChanged",
      "type": "event"
    },
    {
      "inputs": [
        {
          "internalType": "bytes32",
          "name": "node",
          "type": "bytes32"
        },
        {
          "internalType": "uint256",
          "name": "contentTypes",
          "type": "uint256"
        }
      ],
      "name": "ABI",
      "outputs": [
        {
          "internalType": "uint256",
          "name": "",
          "type": "uint256"
        },
        {
          "internalType": "bytes",
          "name": "",
          "type": "bytes"
        }
      ],
      "stateMutability": "view",
      "type": "function"
    },
    {
      "inputs": [
        {
          "internalType": "bytes32",
          "name": "node",
          "type": "bytes32"
        }
      ],
      "name": "addr",
      "outputs": [
        {
          "internalType": "address payable",
          "name": "",
          "type": "address"
        }
      ],
      "stateMutability": "view",
      "type": "function"
    },
    {
      "inputs": [
        {
          "internalType": "bytes32",
          "name": "node",
          "type": "bytes32"
        },
        {
          "internalType": "uint256",
          "name": "coinType",
          "type": "uint256"
        }
      ],
      "name": "addr",
      "outputs": [
        {
          "internalType": "bytes",
          "name": "",
          "type": "bytes"
        }
      ],
      "stateMutability": "view",
      "type": "function"
    },
    {
      "inputs": [
        {
          "internalType": "bytes32",
          "name": "",
          "type": "bytes32"
        },
        {
          "internalType": "address",
          "name": "",
          "type": "address"
        },
        {
          "internalType": "address",
          "name": "",
          "type": "address"
        }
      ],
      "name": "authorisations",
      "outputs": [
        {
          "internalType": "bool",
          "name": "",
          "type": "bool"
        }
      ],
      "stateMutability": "view",
      "type": "function"
    },
    {
      "inputs": [
        {
          "internalType": "bytes32",
          "name": "node",
          "type": "bytes32"
        }
      ],
      "name": "clearDNSZone",
      "outputs": [],
      "stateMutability": "nonpayable",
      "type": "function"
    },
    {
      "inputs": [
        {
          "internalType": "bytes32",
          "name": "node",
          "type": "bytes32"
        }
      ],
      "name": "contenthash",
      "outputs": [
        {
          "internalType": "bytes",
          "name": "",
          "type": "bytes"
        }
      ],
      "stateMutability": "view",
      "type": "function"
    },
    {
      "inputs": [
        {
          "internalType": "bytes32",
          "name": "node",
          "type": "bytes32"
        },
        {
          "internalType": "bytes32",
          "name": "name",
          "type": "bytes32"
        },
        {
          "internalType": "uint16",
          "name": "resource",
          "type": "uint16"
        }
      ],
      "name": "dnsRecord",
      "outputs": [
        {
          "internalType": "bytes",
          "name": "",
          "type": "bytes"
        }
      ],
      "stateMutability": "view",
      "type": "function"
    },
    {
      "inputs": [
        {
          "internalType": "bytes32",
          "name": "node",
          "type": "bytes32"
        },
        {
          "internalType": "bytes32",
          "name": "name",
          "type": "bytes32"
        }
      ],
      "name": "hasDNSRecords",
      "outputs": [
        {
          "internalType": "bool",
          "name": "",
          "type": "bool"
        }
      ],
      "stateMutability": "view",
      "type": "function"
    },
    {
      "inputs": [
        {
          "internalType": "bytes32",
          "name": "node",
          "type": "bytes32"
        },
        {
          "internalType": "bytes4",
          "name": "interfaceID",
          "type": "bytes4"
        }
      ],
      "name": "interfaceImplementer",
      "outputs": [
        {
          "internalType": "address",
          "name": "",
          "type": "address"
        }
      ],
      "stateMutability": "view",
      "type": "function"
    },
    {
      "inputs": [
        {
          "internalType": "bytes32",
          "name": "node",
          "type": "bytes32"
        }
      ],
      "name": "name",
      "outputs": [
        {
          "internalType": "string",
          "name": "",
          "type": "string"
        }
      ],
      "stateMutability": "view",
      "type": "function"
    },
    {
      "inputs": [
        {
          "internalType": "bytes32",
          "name": "node",
          "type": "bytes32"
        }
      ],
      "name": "pubkey",
      "outputs": [
        {
          "internalType": "bytes32",
          "name": "x",
          "type": "bytes32"
        },
        {
          "internalType": "bytes32",
          "name": "y",
          "type": "bytes32"
        }
      ],
      "stateMutability": "view",
      "type": "function"
    },
    {
      "inputs": [
        {
          "internalType": "bytes32",
          "name": "node",
          "type": "bytes32"
        },
        {
          "internalType": "uint256",
          "name": "contentType",
          "type": "uint256"
        },
        {
          "internalType": "bytes",
          "name": "data",
          "type": "bytes"
        }
      ],
      "name": "setABI",
      "outputs": [],
      "stateMutability": "nonpayable",
      "type": "function"
    },
    {
      "inputs": [
        {
          "internalType": "bytes32",
          "name": "node",
          "type": "bytes32"
        },
        {
          "internalType": "uint256",
          "name": "coinType",
          "type": "uint256"
        },
        {
          "internalType": "bytes",
          "name": "a",
          "type": "bytes"
        }
      ],
      "name": "setAddr",
      "outputs": [],
      "stateMutability": "nonpayable",
      "type": "function"
    },
    {
      "inputs": [
        {
          "internalType": "bytes32",
          "name": "node",
          "type": "bytes32"
        },
        {
          "internalType": "address",
          "name": "a",
          "type": "address"
        }
      ],
      "name": "setAddr",
      "outputs": [],
      "stateMutability": "nonpayable",
      "type": "function"
    },
    {
      "inputs": [
        {
          "internalType": "bytes32",
          "name": "node",
          "type": "bytes32"
        },
        {
          "internalType": "bytes",
          "name": "hash",
          "type": "bytes"
        }
      ],
      "name": "setContenthash",
      "outputs": [],
      "stateMutability": "nonpayable",
      "type": "function"
    },
    {
      "inputs": [
        {
          "internalType": "bytes32",
          "name": "node",
          "type": "bytes32"
        },
        {
          "internalType": "bytes",
          "name": "data",
          "type": "bytes"
        }
      ],
      "name": "setDNSRecords",
      "outputs": [],
      "stateMutability": "nonpayable",
      "type": "function"
    },
    {
      "inputs": [
        {
          "internalType": "bytes32",
          "name": "node",
          "type": "bytes32"
        },
        {
          "internalType": "bytes4",
          "name": "interfaceID",
          "type": "bytes4"
        },
        {
          "internalType": "address",
          "name": "implementer",
          "type": "address"
        }
      ],
      "name": "setInterface",
      "outputs": [],
      "stateMutability": "nonpayable",
      "type": "function"
    },
    {
      "inputs": [
        {
          "internalType": "bytes32",
          "name": "node",
          "type": "bytes32"
        },
        {
          "internalType": "string",
          "name": "name",
          "type": "string"
        }
      ],
      "name": "setName",
      "outputs": [],
      "stateMutability": "nonpayable",
      "type": "function"
    },
    {
      "inputs": [
        {
          "internalType": "bytes32",
          "name": "node",
          "type": "bytes32"
        },
        {
          "internalType": "bytes32",
          "name": "x",
          "type": "bytes32"
        },
        {
          "internalType": "bytes32",
          "name": "y",
          "type": "bytes32"
        }
      ],
      "name": "setPubkey",
      "outputs": [],
      "stateMutability": "nonpayable",
      "type": "function"
    },
    {
      "inputs": [
        {
          "internalType": "bytes32",
          "name": "node",
          "type": "bytes32"
        },
        {
          "internalType": "string",
          "name": "key",
          "type": "string"
        },
        {
          "internalType": "string",
          "name": "value",
          "type": "string"
        }
      ],
      "name": "setText",
      "outputs": [],
      "stateMutability": "nonpayable",
      "type": "function"
    },
    {
      "inputs": [
        {
          "internalType": "bytes32",
          "name": "node",
          "type": "bytes32"
        },
        {
          "internalType": "bytes",
          "name": "hash",
          "type": "bytes"
        }
      ],
      "name": "setZonehash",
      "outputs": [],
      "stateMutability": "nonpayable",
      "type": "function"
    },
    {
      "inputs": [
        {
          "internalType": "bytes32",
          "name": "node",
          "type": "bytes32"
        },
        {
          "internalType": "string",
          "name": "key",
          "type": "string"
        }
      ],
      "name": "text",
      "outputs": [
        {
          "internalType": "string",
          "name": "",
          "type": "string"
        }
      ],
      "stateMutability": "view",
      "type": "function"
    },
    {
      "inputs": [
        {
          "internalType": "bytes32",
          "name": "node",
          "type": "bytes32"
        }
      ],
      "name": "zonehash",
      "outputs": [
        {
          "internalType": "bytes",
          "name": "",
          "type": "bytes"
        }
      ],
      "stateMutability": "view",
      "type": "function"
    },
    {
      "inputs": [
        {
          "internalType": "bytes32",
          "name": "node",
          "type": "bytes32"
        },
        {
          "internalType": "address",
          "name": "target",
          "type": "address"
        },
        {
          "internalType": "bool",
          "name": "isAuthorised",
          "type": "bool"
        }
      ],
      "name": "setAuthorisation",
      "outputs": [],
      "stateMutability": "nonpayable",
      "type": "function"
    },
    {
      "inputs": [
        {
          "internalType": "bytes[]",
          "name": "data",
          "type": "bytes[]"
        }
      ],
      "name": "multicall",
      "outputs": [
        {
          "internalType": "bytes[]",
          "name": "results",
          "type": "bytes[]"
        }
      ],
      "stateMutability": "nonpayable",
      "type": "function"
    },
    {
      "inputs": [
        {
          "internalType": "bytes4",
          "name": "interfaceID",
          "type": "bytes4"
        }
      ],
      "name": "supportsInterface",
      "outputs": [
        {
          "internalType": "bool",
          "name": "",
          "type": "bool"
        }
      ],
      "stateMutability": "pure",
      "type": "function"
    }
  ],
  "bytecode": "0x60806040523480156200001157600080fd5b5060405162003d1a38038062003d1a833981810160405281019062000037919062000096565b80600b60006101000a81548173ffffffffffffffffffffffffffffffffffffffff021916908373ffffffffffffffffffffffffffffffffffffffff1602179055505062000124565b60008151905062000090816200010a565b92915050565b600060208284031215620000a957600080fd5b6000620000b9848285016200007f565b91505092915050565b6000620000cf82620000ea565b9050919050565b6000620000e382620000c2565b9050919050565b600073ffffffffffffffffffffffffffffffffffffffff82169050919050565b6200011581620000d6565b81146200012157600080fd5b50565b613be680620001346000396000f3fe608060405234801561001057600080fd5b506004361061018e5760003560e01c8063691f3431116100de578063bc1c58d111610097578063d5fa2b0011610071578063d5fa2b00146104ed578063e59d895d14610509578063f1cb7e0614610525578063f86bc879146105555761018e565b8063bc1c58d114610470578063c8690233146104a0578063ce3decdc146104d15761018e565b8063691f34311461038c57806377372213146103bc5780638b95dd71146103d8578063a8fa5682146103f4578063ac9650d814610424578063ad5780af146104545761018e565b8063304e6ade1161014b5780634cbf6ba4116101255780634cbf6ba4146102e057806359d1d43c146103105780635c98042b14610340578063623195b0146103705761018e565b8063304e6ade146102785780633b3b57de146102945780633e9ce794146102c45761018e565b806301ffc9a7146101935780630af179d7146101c357806310f13a8c146101df578063124a319c146101fb5780632203ab561461022b57806329cd62ea1461025c575b600080fd5b6101ad60048036038101906101a891906135dd565b610585565b6040516101ba919061381b565b60405180910390f35b6101dd60048036038101906101d89190613395565b610597565b005b6101f960048036038101906101f49190613445565b610809565b005b6102156004803603810190610210919061330a565b6108ef565b60405161022291906137c3565b60405180910390f35b610245600480360381019061024091906134ce565b610dae565b6040516102539291906138be565b60405180910390f35b6102766004803603810190610271919061326c565b610efa565b005b610292600480360381019061028d9190613395565b610f92565b005b6102ae60048036038101906102a9919061312d565b611032565b6040516102bb91906137de565b60405180910390f35b6102de60048036038101906102d991906131e1565b611069565b005b6102fa60048036038101906102f59190613230565b611179565b604051610307919061381b565b60405180910390f35b61032a600480360381019061032591906133ed565b6111e1565b604051610337919061389c565b60405180910390f35b61035a6004803603810190610355919061312d565b6112bd565b604051610367919061387a565b60405180910390f35b61038a6004803603810190610385919061350a565b611372565b005b6103a660048036038101906103a1919061312d565b6113ff565b6040516103b3919061389c565b60405180910390f35b6103d660048036038101906103d191906133ed565b6114b4565b005b6103f260048036038101906103ed9190613576565b611554565b005b61040e600480360381019061040991906132bb565b6116ab565b60405161041b919061387a565b60405180910390f35b61043e600480360381019061043991906130e8565b6117b0565b60405161044b91906137f9565b60405180910390f35b61046e6004803603810190610469919061312d565b6118d5565b005b61048a6004803603810190610485919061312d565b61193c565b604051610497919061387a565b60405180910390f35b6104ba60048036038101906104b5919061312d565b6119f1565b6040516104c8929190613851565b60405180910390f35b6104eb60048036038101906104e69190613395565b611a2b565b005b61050760048036038101906105029190613156565b611be9565b005b610523600480360381019061051e9190613346565b611c15565b005b61053f600480360381019061053a91906134ce565b611d3d565b60405161054c919061387a565b60405180910390f35b61056f600480360381019061056a9190613192565b611e04565b60405161057c919061381b565b60405180910390f35b600061059082611e40565b9050919050565b826105a181611ea1565b6105aa57600080fd5b60008060608060006105ba612ca0565b61061260008a8a8080601f016020809104026020016040519081016040528093929190818152602001838380828437600081840152601f19601f8201169050808301925050505050505061202a90919063ffffffff16565b90505b61061e81612054565b6107965760008661ffff1614156106c5578060400151955061063f8161206a565b9350836040516020018082805190602001908083835b602083106106785780518252602082019150602081019050602083039250610655565b6001836020036101000a0380198251168184511680821785525050505050509050019150506040516020818303038152906040528051906020012091506106be816120a1565b9250610788565b60606106d08261206a565b9050816040015161ffff168761ffff161415806106fd57506106fb81866120d190919063ffffffff16565b155b156107865761075f8b86898d8d8080601f016020809104026020016040519081016040528093929190818152602001838380828437600081840152601f19601f820116905080830192505050505050508a8b88602001510360008b51146120f8565b816040015196508160200151955080945084805190602001209250610783826120a1565b93505b505b61079181612571565b610615565b506000835111156107fe576107fd8984878b8b8080601f016020809104026020016040519081016040528093929190818152602001838380828437600081840152601f19601f8201169050808301925050505050505088898e8e90500360008951146120f8565b5b505050505050505050565b8461081381611ea1565b61081c57600080fd5b8282600a6000898152602001908152602001600020878760405180838380828437808301925050509250505090815260200160405180910390209190610863929190612ceb565b5084846040518083838082843780830192505050925050506040518091039020867fd8c9334b1a9c2f9da342a0a2b32629c1a229b6445dad78947f674b44444a7550878760405180806020018281038252848482818152602001925080828437600081840152601f19601f820116905080830192505050935050505060405180910390a3505050505050565b600080600760008581526020019081526020016000206000847bffffffffffffffffffffffffffffffffffffffffffffffffffffffff19167bffffffffffffffffffffffffffffffffffffffffffffffffffffffff1916815260200190815260200160002060009054906101000a900473ffffffffffffffffffffffffffffffffffffffff169050600073ffffffffffffffffffffffffffffffffffffffff168173ffffffffffffffffffffffffffffffffffffffff16146109b45780915050610da8565b60006109bf85611032565b9050600073ffffffffffffffffffffffffffffffffffffffff168173ffffffffffffffffffffffffffffffffffffffff161415610a0157600092505050610da8565b600060608273ffffffffffffffffffffffffffffffffffffffff166301ffc9a760e01b60405160240180827bffffffffffffffffffffffffffffffffffffffffffffffffffffffff191681526020019150506040516020818303038152906040527f01ffc9a7000000000000000000000000000000000000000000000000000000007bffffffffffffffffffffffffffffffffffffffffffffffffffffffff19166020820180517bffffffffffffffffffffffffffffffffffffffffffffffffffffffff83818316178352505050506040518082805190602001908083835b60208310610b035780518252602082019150602081019050602083039250610ae0565b6001836020036101000a038019825116818451168082178552505050505050905001915050600060405180830381855afa9150503d8060008114610b63576040519150601f19603f3d011682016040523d82523d6000602084013e610b68565b606091505b5091509150811580610b7b575060208151105b80610bc25750600060f81b81601f81518110610b9357fe5b602001015160f81c60f81b7effffffffffffffffffffffffffffffffffffffffffffffffffffffffffffff1916145b15610bd4576000945050505050610da8565b8273ffffffffffffffffffffffffffffffffffffffff168660405160240180827bffffffffffffffffffffffffffffffffffffffffffffffffffffffff191681526020019150506040516020818303038152906040527f01ffc9a7000000000000000000000000000000000000000000000000000000007bffffffffffffffffffffffffffffffffffffffffffffffffffffffff19166020820180517bffffffffffffffffffffffffffffffffffffffffffffffffffffffff83818316178352505050506040518082805190602001908083835b60208310610ccb5780518252602082019150602081019050602083039250610ca8565b6001836020036101000a038019825116818451168082178552505050505050905001915050600060405180830381855afa9150503d8060008114610d2b576040519150601f19603f3d011682016040523d82523d6000602084013e610d30565b606091505b508092508193505050811580610d47575060208151105b80610d8e5750600060f81b81601f81518110610d5f57fe5b602001015160f81c60f81b7effffffffffffffffffffffffffffffffffffffffffffffffffffffffffffff1916145b15610da0576000945050505050610da8565b829450505050505b92915050565b60006060600080600086815260200190815260200160002090506000600190505b848111610eda57600085821614158015610e0f57506000826000838152602001908152602001600020805460018160011615610100020316600290049050115b15610ece5780826000838152602001908152602001600020808054600181600116156101000203166002900480601f016020809104026020016040519081016040528092919081815260200182805460018160011615610100020316600290048015610ebc5780601f10610e9157610100808354040283529160200191610ebc565b820191906000526020600020905b815481529060010190602001808311610e9f57829003601f168201915b50505050509050935093505050610ef3565b600181901b9050610dcf565b5060006040518060200160405280600081525092509250505b9250929050565b82610f0481611ea1565b610f0d57600080fd5b604051806040016040528084815260200183815250600960008681526020019081526020016000206000820151816000015560208201518160010155905050837f1d6f5e03d3f63eb58751986629a5439baee5079ff04f345becb66e23eb154e468484604051808381526020018281526020019250505060405180910390a250505050565b82610f9c81611ea1565b610fa557600080fd5b8282600260008781526020019081526020016000209190610fc7929190612d79565b50837fe379c1624ed7e714cc0937528a32359d69d5281337765313dba4e081b72d7578848460405180806020018281038252848482818152602001925080828437600081840152601f19601f820116905080830192505050935050505060405180910390a250505050565b6000606061104183603c611d3d565b9050600081511415611057576000915050611064565b61106081612685565b9150505b919050565b80600c600085815260200190815260200160002060003373ffffffffffffffffffffffffffffffffffffffff1673ffffffffffffffffffffffffffffffffffffffff16815260200190815260200160002060008473ffffffffffffffffffffffffffffffffffffffff1673ffffffffffffffffffffffffffffffffffffffff16815260200190815260200160002060006101000a81548160ff0219169083151502179055508173ffffffffffffffffffffffffffffffffffffffff163373ffffffffffffffffffffffffffffffffffffffff16847fe1c5610a6e0cbe10764ecd182adcef1ec338dc4e199c99c32ce98f38e12791df8460405161116c919061381b565b60405180910390a4505050565b60008060066000858152602001908152602001600020600060046000878152602001908152602001600020548152602001908152602001600020600084815260200190815260200160002060009054906101000a900461ffff1661ffff161415905092915050565b6060600a6000858152602001908152602001600020838360405180838380828437808301925050509250505090815260200160405180910390208054600181600116156101000203166002900480601f0160208091040260200160405190810160405280929190818152602001828054600181600116156101000203166002900480156112af5780601f10611284576101008083540402835291602001916112af565b820191906000526020600020905b81548152906001019060200180831161129257829003601f168201915b505050505090509392505050565b6060600360008381526020019081526020016000208054600181600116156101000203166002900480601f0160208091040260200160405190810160405280929190818152602001828054600181600116156101000203166002900480156113665780601f1061133b57610100808354040283529160200191611366565b820191906000526020600020905b81548152906001019060200180831161134957829003601f168201915b50505050509050919050565b8361137c81611ea1565b61138557600080fd5b60008460018603161461139757600080fd5b8282600080888152602001908152602001600020600087815260200190815260200160002091906113c9929190612d79565b5083857faa121bbeef5f32f5961a2a28966e769023910fc9479059ee3495d4c1a696efe360405160405180910390a35050505050565b6060600860008381526020019081526020016000208054600181600116156101000203166002900480601f0160208091040260200160405190810160405280929190818152602001828054600181600116156101000203166002900480156114a85780601f1061147d576101008083540402835291602001916114a8565b820191906000526020600020905b81548152906001019060200180831161148b57829003601f168201915b50505050509050919050565b826114be81611ea1565b6114c757600080fd5b82826008600087815260200190815260200160002091906114e9929190612ceb565b50837fb7d29e911041e8d9b843369e890bcb72c9388692ba48b65ac54e7214c4c348f7848460405180806020018281038252848482818152602001925080828437600081840152601f19601f820116905080830192505050935050505060405180910390a250505050565b8261155e81611ea1565b61156757600080fd5b837f65412581168e88a1e60c6459d7f44ae83ad0832e670826c05a4e2476b57af75284846040518083815260200180602001828103825283818151815260200191508051906020019080838360005b838110156115d15780820151818401526020810190506115b6565b50505050905090810190601f1680156115fe5780820380516001836020036101000a031916815260200191505b50935050505060405180910390a2603c83141561166c57837f52d7d861f09ab3d26239d492e8968629f95e9e318cf0b73bfddc441522a15fd261164084612685565b604051808273ffffffffffffffffffffffffffffffffffffffff16815260200191505060405180910390a25b8160016000868152602001908152602001600020600085815260200190815260200160002090805190602001906116a4929190612e07565b5050505050565b606060056000858152602001908152602001600020600060046000878152602001908152602001600020548152602001908152602001600020600084815260200190815260200160002060008361ffff1661ffff1681526020019081526020016000208054600181600116156101000203166002900480601f0160208091040260200160405190810160405280929190818152602001828054600181600116156101000203166002900480156117a25780601f10611777576101008083540402835291602001916117a2565b820191906000526020600020905b81548152906001019060200180831161178557829003601f168201915b505050505090509392505050565b60608282905067ffffffffffffffff811180156117cc57600080fd5b5060405190808252806020026020018201604052801561180057816020015b60608152602001906001900390816117eb5790505b50905060005b838390508110156118ce57600060603073ffffffffffffffffffffffffffffffffffffffff1686868581811061183857fe5b905060200281019061184a91906138ee565b6040516118589291906137aa565b600060405180830381855af49150503d8060008114611893576040519150601f19603f3d011682016040523d82523d6000602084013e611898565b606091505b5091509150816118a757600080fd5b808484815181106118b457fe5b602002602001018190525050508080600101915050611806565b5092915050565b806118df81611ea1565b6118e857600080fd5b6004600083815260200190815260200160002060008154809291906001019190505550817fb757169b8492ca2f1c6619d9d76ce22803035c3b1d5f6930dffe7b127c1a198360405160405180910390a25050565b6060600260008381526020019081526020016000208054600181600116156101000203166002900480601f0160208091040260200160405190810160405280929190818152602001828054600181600116156101000203166002900480156119e55780601f106119ba576101008083540402835291602001916119e5565b820191906000526020600020905b8154815290600101906020018083116119c857829003601f168201915b50505050509050919050565b6000806009600084815260200190815260200160002060000154600960008581526020019081526020016000206001015491509150915091565b82611a3581611ea1565b611a3e57600080fd5b6060600360008681526020019081526020016000208054600181600116156101000203166002900480601f016020809104026020016040519081016040528092919081815260200182805460018160011615610100020316600290048015611ae75780601f10611abc57610100808354040283529160200191611ae7565b820191906000526020600020905b815481529060010190602001808311611aca57829003601f168201915b505050505090508383600360008881526020019081526020016000209190611b10929190612d79565b50847f8f15ed4b723ef428f250961da8315675b507046737e19319fc1a4d81bfe87f85828686604051808060200180602001838103835286818151815260200191508051906020019080838360005b83811015611b7a578082015181840152602081019050611b5f565b50505050905090810190601f168015611ba75780820380516001836020036101000a031916815260200191505b508381038252858582818152602001925080828437600081840152601f19601f8201169050808301925050509550505050505060405180910390a25050505050565b81611bf381611ea1565b611bfc57600080fd5b611c1083603c611c0b856126a8565b611554565b505050565b82611c1f81611ea1565b611c2857600080fd5b81600760008681526020019081526020016000206000857bffffffffffffffffffffffffffffffffffffffffffffffffffffffff19167bffffffffffffffffffffffffffffffffffffffffffffffffffffffff1916815260200190815260200160002060006101000a81548173ffffffffffffffffffffffffffffffffffffffff021916908373ffffffffffffffffffffffffffffffffffffffff160217905550827bffffffffffffffffffffffffffffffffffffffffffffffffffffffff1916847f7c69f06bea0bdef565b709e93a147836b0063ba2dd89f02d0b7e8d931e6a6daa84604051808273ffffffffffffffffffffffffffffffffffffffff16815260200191505060405180910390a350505050565b60606001600084815260200190815260200160002060008381526020019081526020016000208054600181600116156101000203166002900480601f016020809104026020016040519081016040528092919081815260200182805460018160011615610100020316600290048015611df75780601f10611dcc57610100808354040283529160200191611df7565b820191906000526020600020905b815481529060010190602001808311611dda57829003601f168201915b5050505050905092915050565b600c602052826000526040600020602052816000526040600020602052806000526040600020600092509250509054906101000a900460ff1681565b60006359d1d43c60e01b7bffffffffffffffffffffffffffffffffffffffffffffffffffffffff1916827bffffffffffffffffffffffffffffffffffffffffffffffffffffffff19161480611e9a5750611e998261270a565b5b9050919050565b600080600b60009054906101000a900473ffffffffffffffffffffffffffffffffffffffff1673ffffffffffffffffffffffffffffffffffffffff166302571be3846040518263ffffffff1660e01b8152600401611eff9190613836565b60206040518083038186803b158015611f1757600080fd5b505afa158015611f2b573d6000803e3d6000fd5b505050506040513d601f19601f82011682018060405250810190611f4f91906130bf565b90503373ffffffffffffffffffffffffffffffffffffffff168173ffffffffffffffffffffffffffffffffffffffff1614806120225750600c600084815260200190815260200160002060008273ffffffffffffffffffffffffffffffffffffffff1673ffffffffffffffffffffffffffffffffffffffff16815260200190815260200160002060003373ffffffffffffffffffffffffffffffffffffffff1673ffffffffffffffffffffffffffffffffffffffff16815260200190815260200160002060009054906101000a900460ff165b915050919050565b612032612ca0565b828160000181905250818160c001818152505061204e81612571565b92915050565b6000816000015151826020015110159050919050565b606061209a82602001516120868460000151856020015161276b565b84600001516127c69092919063ffffffff16565b9050919050565b60606120ca8260a001518360a001518460c001510384600001516127c69092919063ffffffff16565b9050919050565b6000815183511480156120f057506120ef8360008460008751612850565b5b905092915050565b60006004600089815260200190815260200160002054905060008780519060200120905060606121338686896127c69092919063ffffffff16565b90508315612317576000600560008c81526020019081526020016000206000858152602001908152602001600020600084815260200190815260200160002060008a61ffff1661ffff1681526020019081526020016000208054600181600116156101000203166002900490501461220f57600660008b815260200190815260200160002060008481526020019081526020016000206000838152602001908152602001600020600081819054906101000a900461ffff16809291906001900391906101000a81548161ffff021916908361ffff160217905550505b600560008b81526020019081526020016000206000848152602001908152602001600020600083815260200190815260200160002060008961ffff1661ffff16815260200190815260200160002060006122699190612e95565b897f03528ed0c2a3ebc993b12ce3c16bb382f9c7d88ef7d8a1bf290eaf35955a12078a8a60405180806020018361ffff168152602001828103825284818151815260200191508051906020019080838360005b838110156122d75780820151818401526020810190506122bc565b50505050905090810190601f1680156123045780820380516001836020036101000a031916815260200191505b50935050505060405180910390a2612565565b6000600560008c81526020019081526020016000206000858152602001908152602001600020600084815260200190815260200160002060008a61ffff1661ffff16815260200190815260200160002080546001816001161561010002031660029004905014156123eb57600660008b815260200190815260200160002060008481526020019081526020016000206000838152602001908152602001600020600081819054906101000a900461ffff168092919060010191906101000a81548161ffff021916908361ffff160217905550505b80600560008c81526020019081526020016000206000858152602001908152602001600020600084815260200190815260200160002060008a61ffff1661ffff168152602001908152602001600020908051906020019061244d929190612e07565b50897f52a608b3303a48862d07a73d82fa221318c0027fbbcfb1b2329bface3f19ff2b8a8a8460405180806020018461ffff16815260200180602001838103835286818151815260200191508051906020019080838360005b838110156124c15780820151818401526020810190506124a6565b50505050905090810190601f1680156124ee5780820380516001836020036101000a031916815260200191505b50838103825284818151815260200191508051906020019080838360005b8381101561252757808201518184015260208101905061250c565b50505050905090810190601f1680156125545780820380516001836020036101000a031916815260200191505b509550505050505060405180910390a25b50505050505050505050565b8060c0015181602001818152505080600001515181602001511061259457612682565b60006125a88260000151836020015161276b565b82602001510190506125c781836000015161287490919063ffffffff16565b826040019061ffff16908161ffff16815250506002810190506125f781836000015161287490919063ffffffff16565b826060019061ffff16908161ffff168152505060028101905061262781836000015161289a90919063ffffffff16565b826080019063ffffffff16908163ffffffff1681525050600481019050600061265d82846000015161287490919063ffffffff16565b61ffff169050600282019150818360a00181815250508082018360c001818152505050505b50565b6000601482511461269557600080fd5b600c6101000a6020830151049050919050565b6060601467ffffffffffffffff811180156126c257600080fd5b506040519080825280601f01601f1916602001820160405280156126f55781602001600182028036833780820191505090505b509050600c6101000a82026020820152919050565b600063c869023360e01b7bffffffffffffffffffffffffffffffffffffffffffffffffffffffff1916827bffffffffffffffffffffffffffffffffffffffffffffffffffffffff191614806127645750612763826128c2565b5b9050919050565b6000808290505b6001156127ba578351811061278357fe5b6000612798828661292390919063ffffffff16565b60ff169050600181018201915060008114156127b457506127ba565b50612772565b82810391505092915050565b6060835182840111156127d857600080fd5b60608267ffffffffffffffff811180156127f157600080fd5b506040519080825280601f01601f1916602001820160405280156128245781602001600182028036833780820191505090505b5090506000806020830191508560208801019050612843828287612947565b8293505050509392505050565b600061285d848484612990565b612868878785612990565b14905095945050505050565b6000825160028301111561288757600080fd5b61ffff8260028501015116905092915050565b600082516004830111156128ad57600080fd5b63ffffffff8260048501015116905092915050565b600063691f343160e01b7bffffffffffffffffffffffffffffffffffffffffffffffffffffffff1916827bffffffffffffffffffffffffffffffffffffffffffffffffffffffff1916148061291c575061291b826129b3565b5b9050919050565b600082828151811061293157fe5b602001015160f81c60f81b60f81c905092915050565b5b6020811061296b5781518352602083019250602082019150602081039050612948565b60006001826020036101000a0390508019835116818551168181178652505050505050565b6000835182840111156129a257600080fd5b818360208601012090509392505050565b60007f124a319c1247f4318c3c16c7e9cc865d0fb5d80d7bf02f56cafc0d14da0208507bffffffffffffffffffffffffffffffffffffffffffffffffffffffff1916827bffffffffffffffffffffffffffffffffffffffffffffffffffffffff19161480612a265750612a2582612a2d565b5b9050919050565b600063a8fa568260e01b7bffffffffffffffffffffffffffffffffffffffffffffffffffffffff1916827bffffffffffffffffffffffffffffffffffffffffffffffffffffffff19161480612ac65750635c47637c60e01b7bffffffffffffffffffffffffffffffffffffffffffffffffffffffff1916827bffffffffffffffffffffffffffffffffffffffffffffffffffffffff1916145b80612ad65750612ad582612add565b5b9050919050565b600063bc1c58d160e01b7bffffffffffffffffffffffffffffffffffffffffffffffffffffffff1916827bffffffffffffffffffffffffffffffffffffffffffffffffffffffff19161480612b375750612b3682612b3e565b5b9050919050565b6000633b3b57de60e01b7bffffffffffffffffffffffffffffffffffffffffffffffffffffffff1916827bffffffffffffffffffffffffffffffffffffffffffffffffffffffff19161480612bd7575063f1cb7e0660e01b7bffffffffffffffffffffffffffffffffffffffffffffffffffffffff1916827bffffffffffffffffffffffffffffffffffffffffffffffffffffffff1916145b80612be75750612be682612bee565b5b9050919050565b6000632203ab5660e01b7bffffffffffffffffffffffffffffffffffffffffffffffffffffffff1916827bffffffffffffffffffffffffffffffffffffffffffffffffffffffff19161480612c485750612c4782612c4f565b5b9050919050565b60006301ffc9a760e01b7bffffffffffffffffffffffffffffffffffffffffffffffffffffffff1916827bffffffffffffffffffffffffffffffffffffffffffffffffffffffff1916149050919050565b6040518060e001604052806060815260200160008152602001600061ffff168152602001600061ffff168152602001600063ffffffff16815260200160008152602001600081525090565b828054600181600116156101000203166002900490600052602060002090601f016020900481019282612d215760008555612d68565b82601f10612d3a57803560ff1916838001178555612d68565b82800160010185558215612d68579182015b82811115612d67578235825591602001919060010190612d4c565b5b509050612d759190612edd565b5090565b828054600181600116156101000203166002900490600052602060002090601f016020900481019282612daf5760008555612df6565b82601f10612dc857803560ff1916838001178555612df6565b82800160010185558215612df6579182015b82811115612df5578235825591602001919060010190612dda565b5b509050612e039190612edd565b5090565b828054600181600116156101000203166002900490600052602060002090601f016020900481019282612e3d5760008555612e84565b82601f10612e5657805160ff1916838001178555612e84565b82800160010185558215612e84579182015b82811115612e83578251825591602001919060010190612e68565b5b509050612e919190612edd565b5090565b50805460018160011615610100020316600290046000825580601f10612ebb5750612eda565b601f016020900490600052602060002090810190612ed99190612edd565b5b50565b5b80821115612ef6576000816000905550600101612ede565b5090565b600081359050612f0981613b26565b92915050565b600081519050612f1e81613b26565b92915050565b60008083601f840112612f3657600080fd5b8235905067ffffffffffffffff811115612f4f57600080fd5b602083019150836020820283011115612f6757600080fd5b9250929050565b600081359050612f7d81613b3d565b92915050565b600081359050612f9281613b54565b92915050565b600081359050612fa781613b6b565b92915050565b60008083601f840112612fbf57600080fd5b8235905067ffffffffffffffff811115612fd857600080fd5b602083019150836001820283011115612ff057600080fd5b9250929050565b600082601f83011261300857600080fd5b813561301b61301682613976565b613945565b9150808252602083016020830185838301111561303757600080fd5b613042838284613ad1565b50505092915050565b60008083601f84011261305d57600080fd5b8235905067ffffffffffffffff81111561307657600080fd5b60208301915083600182028301111561308e57600080fd5b9250929050565b6000813590506130a481613b82565b92915050565b6000813590506130b981613b99565b92915050565b6000602082840312156130d157600080fd5b60006130df84828501612f0f565b91505092915050565b600080602083850312156130fb57600080fd5b600083013567ffffffffffffffff81111561311557600080fd5b61312185828601612f24565b92509250509250929050565b60006020828403121561313f57600080fd5b600061314d84828501612f83565b91505092915050565b6000806040838503121561316957600080fd5b600061317785828601612f83565b925050602061318885828601612efa565b9150509250929050565b6000806000606084860312156131a757600080fd5b60006131b586828701612f83565b93505060206131c686828701612efa565b92505060406131d786828701612efa565b9150509250925092565b6000806000606084860312156131f657600080fd5b600061320486828701612f83565b935050602061321586828701612efa565b925050604061322686828701612f6e565b9150509250925092565b6000806040838503121561324357600080fd5b600061325185828601612f83565b925050602061326285828601612f83565b9150509250929050565b60008060006060848603121561328157600080fd5b600061328f86828701612f83565b93505060206132a086828701612f83565b92505060406132b186828701612f83565b9150509250925092565b6000806000606084860312156132d057600080fd5b60006132de86828701612f83565b93505060206132ef86828701612f83565b925050604061330086828701613095565b9150509250925092565b6000806040838503121561331d57600080fd5b600061332b85828601612f83565b925050602061333c85828601612f98565b9150509250929050565b60008060006060848603121561335b57600080fd5b600061336986828701612f83565b935050602061337a86828701612f98565b925050604061338b86828701612efa565b9150509250925092565b6000806000604084860312156133aa57600080fd5b60006133b886828701612f83565b935050602084013567ffffffffffffffff8111156133d557600080fd5b6133e186828701612fad565b92509250509250925092565b60008060006040848603121561340257600080fd5b600061341086828701612f83565b935050602084013567ffffffffffffffff81111561342d57600080fd5b6134398682870161304b565b92509250509250925092565b60008060008060006060868803121561345d57600080fd5b600061346b88828901612f83565b955050602086013567ffffffffffffffff81111561348857600080fd5b6134948882890161304b565b9450945050604086013567ffffffffffffffff8111156134b357600080fd5b6134bf8882890161304b565b92509250509295509295909350565b600080604083850312156134e157600080fd5b60006134ef85828601612f83565b9250506020613500858286016130aa565b9150509250929050565b6000806000806060858703121561352057600080fd5b600061352e87828801612f83565b945050602061353f878288016130aa565b935050604085013567ffffffffffffffff81111561355c57600080fd5b61356887828801612fad565b925092505092959194509250565b60008060006060848603121561358b57600080fd5b600061359986828701612f83565b93505060206135aa868287016130aa565b925050604084013567ffffffffffffffff8111156135c757600080fd5b6135d386828701612ff7565b9150509250925092565b6000602082840312156135ef57600080fd5b60006135fd84828501612f98565b91505092915050565b600061361283836136f0565b905092915050565b61362381613a45565b82525050565b61363281613a33565b82525050565b6000613643826139b6565b61364d81856139e4565b93508360208202850161365f856139a6565b8060005b8581101561369b578484038952815161367c8582613606565b9450613687836139d7565b925060208a01995050600181019050613663565b50829750879550505050505092915050565b6136b681613a57565b82525050565b6136c581613a63565b82525050565b60006136d78385613a17565b93506136e4838584613ad1565b82840190509392505050565b60006136fb826139c1565b61370581856139f5565b9350613715818560208601613ae0565b61371e81613b15565b840191505092915050565b6000613734826139c1565b61373e8185613a06565b935061374e818560208601613ae0565b61375781613b15565b840191505092915050565b600061376d826139cc565b6137778185613a22565b9350613787818560208601613ae0565b61379081613b15565b840191505092915050565b6137a481613ac7565b82525050565b60006137b78284866136cb565b91508190509392505050565b60006020820190506137d86000830184613629565b92915050565b60006020820190506137f3600083018461361a565b92915050565b600060208201905081810360008301526138138184613638565b905092915050565b600060208201905061383060008301846136ad565b92915050565b600060208201905061384b60008301846136bc565b92915050565b600060408201905061386660008301856136bc565b61387360208301846136bc565b9392505050565b600060208201905081810360008301526138948184613729565b905092915050565b600060208201905081810360008301526138b68184613762565b905092915050565b60006040820190506138d3600083018561379b565b81810360208301526138e58184613729565b90509392505050565b6000808335600160200384360303811261390757600080fd5b80840192508235915067ffffffffffffffff82111561392557600080fd5b60208301925060018202360383131561393d57600080fd5b509250929050565b6000604051905081810181811067ffffffffffffffff8211171561396c5761396b613b13565b5b8060405250919050565b600067ffffffffffffffff82111561399157613990613b13565b5b601f19601f8301169050602081019050919050565b6000819050602082019050919050565b600081519050919050565b600081519050919050565b600081519050919050565b6000602082019050919050565b600082825260208201905092915050565b600082825260208201905092915050565b600082825260208201905092915050565b600081905092915050565b600082825260208201905092915050565b6000613a3e82613aa7565b9050919050565b6000613a5082613aa7565b9050919050565b60008115159050919050565b6000819050919050565b60007fffffffff0000000000000000000000000000000000000000000000000000000082169050919050565b600061ffff82169050919050565b600073ffffffffffffffffffffffffffffffffffffffff82169050919050565b6000819050919050565b82818337600083830152505050565b60005b83811015613afe578082015181840152602081019050613ae3565b83811115613b0d576000848401525b50505050565bfe5b6000601f19601f8301169050919050565b613b2f81613a33565b8114613b3a57600080fd5b50565b613b4681613a57565b8114613b5157600080fd5b50565b613b5d81613a63565b8114613b6857600080fd5b50565b613b7481613a6d565b8114613b7f57600080fd5b50565b613b8b81613a99565b8114613b9657600080fd5b50565b613ba281613ac7565b8114613bad57600080fd5b5056fea2646970667358221220f53c77069cbd6a68af39876203c2c97a3cc371fa04df861d30b7208d1b1a719564736f6c63430007040033",
  "immutableReferences": {},
  "source": "pragma solidity ^0.7.4;pragma experimental ABIEncoderV2;\n\nimport \"@ensdomains/ens/contracts/ENS.sol\";\nimport \"./profiles/ABIResolver.sol\";\nimport \"./profiles/AddrResolver.sol\";\nimport \"./profiles/ContentHashResolver.sol\";\nimport \"./profiles/DNSResolver.sol\";\nimport \"./profiles/InterfaceResolver.sol\";\nimport \"./profiles/NameResolver.sol\";\nimport \"./profiles/PubkeyResolver.sol\";\nimport \"./profiles/TextResolver.sol\";\n\n/**\n * A simple resolver anyone can use; only allows the owner of a node to set its\n * address.\n */\ncontract PublicResolver is ABIResolver, AddrResolver, ContentHashResolver, DNSResolver, InterfaceResolver, NameResolver, PubkeyResolver, TextResolver {\n    ENS ens;\n\n    /**\n     * A mapping of authorisations. An address that is authorised for a name\n     * may make any changes to the name that the owner could, but may not update\n     * the set of authorisations.\n     * (node, owner, caller) => isAuthorised\n     */\n    mapping(bytes32=>mapping(address=>mapping(address=>bool))) public authorisations;\n\n    event AuthorisationChanged(bytes32 indexed node, address indexed owner, address indexed target, bool isAuthorised);\n\n    constructor(ENS _ens) {\n        ens = _ens;\n    }\n\n    /**\n     * @dev Sets or clears an authorisation.\n     * Authorisations are specific to the caller. Any account can set an authorisation\n     * for any name, but the authorisation that is checked will be that of the\n     * current owner of a name. Thus, transferring a name effectively clears any\n     * existing authorisations, and new authorisations can be set in advance of\n     * an ownership transfer if desired.\n     *\n     * @param node The name to change the authorisation on.\n     * @param target The address that is to be authorised or deauthorised.\n     * @param isAuthorised True if the address should be authorised, or false if it should be deauthorised.\n     */\n    function setAuthorisation(bytes32 node, address target, bool isAuthorised) external {\n        authorisations[node][msg.sender][target] = isAuthorised;\n        emit AuthorisationChanged(node, msg.sender, target, isAuthorised);\n    }\n\n    function isAuthorised(bytes32 node) internal override view returns(bool) {\n        address owner = ens.owner(node);\n        return owner == msg.sender || authorisations[node][owner][msg.sender];\n    }\n\n    function multicall(bytes[] calldata data) external returns(bytes[] memory results) {\n        results = new bytes[](data.length);\n        for(uint i = 0; i < data.length; i++) {\n            (bool success, bytes memory result) = address(this).delegatecall(data[i]);\n            require(success);\n            results[i] = result;\n        }\n        return results;\n    }\n\n    function supportsInterface(bytes4 interfaceID) virtual override(ABIResolver, AddrResolver, ContentHashResolver, DNSResolver, InterfaceResolver, NameResolver, PubkeyResolver, TextResolver) public pure returns(bool) {\n        return super.supportsInterface(interfaceID);\n    }\n}\n",
  "sourcePath": "/home/sniffnoy/truffle/resolvers/contracts/PublicResolver.sol",
  "compiler": {
    "name": "solc",
    "version": "0.7.4+commit.3f05b770.Emscripten.clang"
  },
  "schemaVersion": "3.4.11",
  "updatedAt": "2022-12-07T06:05:13.647Z",
  "devdoc": {
    "kind": "dev",
    "methods": {
      "ABI(bytes32,uint256)": {
        "params": {
          "contentTypes": "A bitwise OR of the ABI formats accepted by the caller.",
          "node": "The ENS node to query"
        },
        "returns": {
          "_0": "contentType The content type of the return value",
          "_1": "data The ABI data"
        }
      },
      "addr(bytes32)": {
        "params": {
          "node": "The ENS node to query."
        },
        "returns": {
          "_0": "The associated address."
        }
      },
      "clearDNSZone(bytes32)": {
        "params": {
          "node": "the namehash of the node for which to clear the zone"
        }
      },
      "contenthash(bytes32)": {
        "params": {
          "node": "The ENS node to query."
        },
        "returns": {
          "_0": "The associated contenthash."
        }
      },
      "dnsRecord(bytes32,bytes32,uint16)": {
        "params": {
          "name": "the keccak-256 hash of the fully-qualified name for which to fetch the record",
          "node": "the namehash of the node for which to fetch the record",
          "resource": "the ID of the resource as per https://en.wikipedia.org/wiki/List_of_DNS_record_types"
        },
        "returns": {
          "_0": "the DNS record in wire format if present, otherwise empty"
        }
      },
      "hasDNSRecords(bytes32,bytes32)": {
        "params": {
          "name": "the namehash of the node for which to check the records",
          "node": "the namehash of the node for which to check the records"
        }
      },
      "interfaceImplementer(bytes32,bytes4)": {
        "params": {
          "interfaceID": "The EIP 165 interface ID to check for.",
          "node": "The ENS node to query."
        },
        "returns": {
          "_0": "The address that implements this interface, or 0 if the interface is unsupported."
        }
      },
      "name(bytes32)": {
        "params": {
          "node": "The ENS node to query."
        },
        "returns": {
          "_0": "The associated name."
        }
      },
      "pubkey(bytes32)": {
        "params": {
          "node": "The ENS node to query"
        },
        "returns": {
          "x": "The X coordinate of the curve point for the public key.",
          "y": "The Y coordinate of the curve point for the public key."
        }
      },
      "setABI(bytes32,uint256,bytes)": {
        "params": {
          "contentType": "The content type of the ABI",
          "data": "The ABI data.",
          "node": "The node to update."
        }
      },
      "setAddr(bytes32,address)": {
        "params": {
          "a": "The address to set.",
          "node": "The node to update."
        }
      },
      "setAuthorisation(bytes32,address,bool)": {
        "details": "Sets or clears an authorisation. Authorisations are specific to the caller. Any account can set an authorisation for any name, but the authorisation that is checked will be that of the current owner of a name. Thus, transferring a name effectively clears any existing authorisations, and new authorisations can be set in advance of an ownership transfer if desired.",
        "params": {
          "isAuthorised": "True if the address should be authorised, or false if it should be deauthorised.",
          "node": "The name to change the authorisation on.",
          "target": "The address that is to be authorised or deauthorised."
        }
      },
      "setContenthash(bytes32,bytes)": {
        "params": {
          "hash": "The contenthash to set",
          "node": "The node to update."
        }
      },
      "setDNSRecords(bytes32,bytes)": {
        "params": {
          "data": "the DNS wire format records to set",
          "node": "the namehash of the node for which to set the records"
        }
      },
      "setInterface(bytes32,bytes4,address)": {
        "params": {
          "implementer": "The address of a contract that implements this interface for this node.",
          "interfaceID": "The EIP 165 interface ID.",
          "node": "The node to update."
        }
      },
      "setName(bytes32,string)": {
        "params": {
          "name": "The name to set.",
          "node": "The node to update."
        }
      },
      "setPubkey(bytes32,bytes32,bytes32)": {
        "params": {
          "node": "The ENS node to query",
          "x": "the X coordinate of the curve point for the public key.",
          "y": "the Y coordinate of the curve point for the public key."
        }
      },
      "setText(bytes32,string,string)": {
        "params": {
          "key": "The key to set.",
          "node": "The node to update.",
          "value": "The text data value to set."
        }
      },
      "setZonehash(bytes32,bytes)": {
        "params": {
          "hash": "The zonehash to set",
          "node": "The node to update."
        }
      },
      "text(bytes32,string)": {
        "params": {
          "key": "The text data key to query.",
          "node": "The ENS node to query."
        },
        "returns": {
          "_0": "The associated text data."
        }
      },
      "zonehash(bytes32)": {
        "params": {
          "node": "The ENS node to query."
        },
        "returns": {
          "_0": "The associated contenthash."
        }
      }
    },
    "version": 1
  },
  "userdoc": {
    "kind": "user",
    "methods": {
      "ABI(bytes32,uint256)": {
        "notice": "Returns the ABI associated with an ENS node. Defined in EIP205."
      },
      "addr(bytes32)": {
        "notice": "Returns the address associated with an ENS node."
      },
      "authorisations(bytes32,address,address)": {
        "notice": "A mapping of authorisations. An address that is authorised for a name may make any changes to the name that the owner could, but may not update the set of authorisations. (node, owner, caller) => isAuthorised"
      },
      "clearDNSZone(bytes32)": {
        "notice": "Clear all information for a DNS zone."
      },
      "contenthash(bytes32)": {
        "notice": "Returns the contenthash associated with an ENS node."
      },
      "dnsRecord(bytes32,bytes32,uint16)": {
        "notice": "Obtain a DNS record."
      },
      "hasDNSRecords(bytes32,bytes32)": {
        "notice": "Check if a given node has records."
      },
      "interfaceImplementer(bytes32,bytes4)": {
        "notice": "Returns the address of a contract that implements the specified interface for this name. If an implementer has not been set for this interfaceID and name, the resolver will query the contract at `addr()`. If `addr()` is set, a contract exists at that address, and that contract implements EIP165 and returns `true` for the specified interfaceID, its address will be returned."
      },
      "name(bytes32)": {
        "notice": "Returns the name associated with an ENS node, for reverse records. Defined in EIP181."
      },
      "pubkey(bytes32)": {
        "notice": "Returns the SECP256k1 public key associated with an ENS node. Defined in EIP 619."
      },
      "setABI(bytes32,uint256,bytes)": {
        "notice": "Sets the ABI associated with an ENS node. Nodes may have one ABI of each content type. To remove an ABI, set it to the empty string."
      },
      "setAddr(bytes32,address)": {
        "notice": "Sets the address associated with an ENS node. May only be called by the owner of that node in the ENS registry."
      },
      "setContenthash(bytes32,bytes)": {
        "notice": "Sets the contenthash associated with an ENS node. May only be called by the owner of that node in the ENS registry."
      },
      "setDNSRecords(bytes32,bytes)": {
        "notice": "Set one or more DNS records.  Records are supplied in wire-format. Records with the same node/name/resource must be supplied one after the other to ensure the data is updated correctly. For example, if the data was supplied:     a.example.com IN A 1.2.3.4     a.example.com IN A 5.6.7.8     www.example.com IN CNAME a.example.com. then this would store the two A records for a.example.com correctly as a single RRSET, however if the data was supplied:     a.example.com IN A 1.2.3.4     www.example.com IN CNAME a.example.com.     a.example.com IN A 5.6.7.8 then this would store the first A record, the CNAME, then the second A record which would overwrite the first."
      },
      "setInterface(bytes32,bytes4,address)": {
        "notice": "Sets an interface associated with a name. Setting the address to 0 restores the default behaviour of querying the contract at `addr()` for interface support."
      },
      "setName(bytes32,string)": {
        "notice": "Sets the name associated with an ENS node, for reverse records. May only be called by the owner of that node in the ENS registry."
      },
      "setPubkey(bytes32,bytes32,bytes32)": {
        "notice": "Sets the SECP256k1 public key associated with an ENS node."
      },
      "setText(bytes32,string,string)": {
        "notice": "Sets the text data associated with an ENS node and key. May only be called by the owner of that node in the ENS registry."
      },
      "setZonehash(bytes32,bytes)": {
        "notice": "setZonehash sets the hash for the zone. May only be called by the owner of that node in the ENS registry."
      },
      "text(bytes32,string)": {
        "notice": "Returns the text data associated with an ENS node and key."
      },
      "zonehash(bytes32)": {
        "notice": "zonehash obtains the hash for the zone."
      }
    },
    "notice": "A simple resolver anyone can use; only allows the owner of a node to set its address.",
    "version": 1
  }
}