{
  "contractName": "PublicResolver",
  "abi": [
    {
      "inputs": [
        {
          "internalType": "contract ENS",
          "name": "_ens",
          "type": "address"
        },
        {
          "internalType": "contract INameWrapper",
          "name": "wrapperAddress",
          "type": "address"
        }
      ],
      "stateMutability": "nonpayable",
      "type": "constructor"
    },
    {
      "anonymous": false,
      "inputs": [
        {
          "indexed": true,
          "internalType": "bytes32",
          "name": "node",
          "type": "bytes32"
        },
        {
          "indexed": true,
          "internalType": "uint256",
          "name": "contentType",
          "type": "uint256"
        }
      ],
      "name": "ABIChanged",
      "type": "event"
    },
    {
      "anonymous": false,
      "inputs": [
        {
          "indexed": true,
          "internalType": "bytes32",
          "name": "node",
          "type": "bytes32"
        },
        {
          "indexed": false,
          "internalType": "address",
          "name": "a",
          "type": "address"
        }
      ],
      "name": "AddrChanged",
      "type": "event"
    },
    {
      "anonymous": false,
      "inputs": [
        {
          "indexed": true,
          "internalType": "bytes32",
          "name": "node",
          "type": "bytes32"
        },
        {
          "indexed": false,
          "internalType": "uint256",
          "name": "coinType",
          "type": "uint256"
        },
        {
          "indexed": false,
          "internalType": "bytes",
          "name": "newAddress",
          "type": "bytes"
        }
      ],
      "name": "AddressChanged",
      "type": "event"
    },
    {
      "anonymous": false,
      "inputs": [
        {
          "indexed": true,
          "internalType": "address",
          "name": "owner",
          "type": "address"
        },
        {
          "indexed": true,
          "internalType": "address",
          "name": "operator",
          "type": "address"
        },
        {
          "indexed": false,
          "internalType": "bool",
          "name": "approved",
          "type": "bool"
        }
      ],
      "name": "ApprovalForAll",
      "type": "event"
    },
    {
      "anonymous": false,
      "inputs": [
        {
          "indexed": true,
          "internalType": "bytes32",
          "name": "node",
          "type": "bytes32"
        },
        {
          "indexed": false,
          "internalType": "bytes",
          "name": "hash",
          "type": "bytes"
        }
      ],
      "name": "ContenthashChanged",
      "type": "event"
    },
    {
      "anonymous": false,
      "inputs": [
        {
          "indexed": true,
          "internalType": "bytes32",
          "name": "node",
          "type": "bytes32"
        },
        {
          "indexed": false,
          "internalType": "bytes",
          "name": "name",
          "type": "bytes"
        },
        {
          "indexed": false,
          "internalType": "uint16",
          "name": "resource",
          "type": "uint16"
        },
        {
          "indexed": false,
          "internalType": "bytes",
          "name": "record",
          "type": "bytes"
        }
      ],
      "name": "DNSRecordChanged",
      "type": "event"
    },
    {
      "anonymous": false,
      "inputs": [
        {
          "indexed": true,
          "internalType": "bytes32",
          "name": "node",
          "type": "bytes32"
        },
        {
          "indexed": false,
          "internalType": "bytes",
          "name": "name",
          "type": "bytes"
        },
        {
          "indexed": false,
          "internalType": "uint16",
          "name": "resource",
          "type": "uint16"
        }
      ],
      "name": "DNSRecordDeleted",
      "type": "event"
    },
    {
      "anonymous": false,
      "inputs": [
        {
          "indexed": true,
          "internalType": "bytes32",
          "name": "node",
          "type": "bytes32"
        }
      ],
      "name": "DNSZoneCleared",
      "type": "event"
    },
    {
      "anonymous": false,
      "inputs": [
        {
          "indexed": true,
          "internalType": "bytes32",
          "name": "node",
          "type": "bytes32"
        },
        {
          "indexed": false,
          "internalType": "bytes",
          "name": "lastzonehash",
          "type": "bytes"
        },
        {
          "indexed": false,
          "internalType": "bytes",
          "name": "zonehash",
          "type": "bytes"
        }
      ],
      "name": "DNSZonehashChanged",
      "type": "event"
    },
    {
      "anonymous": false,
      "inputs": [
        {
          "indexed": true,
          "internalType": "bytes32",
          "name": "node",
          "type": "bytes32"
        },
        {
          "indexed": true,
          "internalType": "bytes4",
          "name": "interfaceID",
          "type": "bytes4"
        },
        {
          "indexed": false,
          "internalType": "address",
          "name": "implementer",
          "type": "address"
        }
      ],
      "name": "InterfaceChanged",
      "type": "event"
    },
    {
      "anonymous": false,
      "inputs": [
        {
          "indexed": true,
          "internalType": "bytes32",
          "name": "node",
          "type": "bytes32"
        },
        {
          "indexed": false,
          "internalType": "string",
          "name": "name",
          "type": "string"
        }
      ],
      "name": "NameChanged",
      "type": "event"
    },
    {
      "anonymous": false,
      "inputs": [
        {
          "indexed": true,
          "internalType": "bytes32",
          "name": "node",
          "type": "bytes32"
        },
        {
          "indexed": false,
          "internalType": "bytes32",
          "name": "x",
          "type": "bytes32"
        },
        {
          "indexed": false,
          "internalType": "bytes32",
          "name": "y",
          "type": "bytes32"
        }
      ],
      "name": "PubkeyChanged",
      "type": "event"
    },
    {
      "anonymous": false,
      "inputs": [
        {
          "indexed": true,
          "internalType": "bytes32",
          "name": "node",
          "type": "bytes32"
        },
        {
          "indexed": true,
          "internalType": "string",
          "name": "indexedKey",
          "type": "string"
        },
        {
          "indexed": false,
          "internalType": "string",
          "name": "key",
          "type": "string"
        }
      ],
      "name": "TextChanged",
      "type": "event"
    },
    {
      "inputs": [
        {
          "internalType": "bytes32",
          "name": "node",
          "type": "bytes32"
        },
        {
          "internalType": "uint256",
          "name": "contentTypes",
          "type": "uint256"
        }
      ],
      "name": "ABI",
      "outputs": [
        {
          "internalType": "uint256",
          "name": "",
          "type": "uint256"
        },
        {
          "internalType": "bytes",
          "name": "",
          "type": "bytes"
        }
      ],
      "stateMutability": "view",
      "type": "function"
    },
    {
      "inputs": [
        {
          "internalType": "bytes32",
          "name": "node",
          "type": "bytes32"
        }
      ],
      "name": "addr",
      "outputs": [
        {
          "internalType": "address payable",
          "name": "",
          "type": "address"
        }
      ],
      "stateMutability": "view",
      "type": "function"
    },
    {
      "inputs": [
        {
          "internalType": "bytes32",
          "name": "node",
          "type": "bytes32"
        },
        {
          "internalType": "uint256",
          "name": "coinType",
          "type": "uint256"
        }
      ],
      "name": "addr",
      "outputs": [
        {
          "internalType": "bytes",
          "name": "",
          "type": "bytes"
        }
      ],
      "stateMutability": "view",
      "type": "function"
    },
    {
      "inputs": [
        {
          "internalType": "bytes32",
          "name": "node",
          "type": "bytes32"
        }
      ],
      "name": "clearDNSZone",
      "outputs": [],
      "stateMutability": "nonpayable",
      "type": "function"
    },
    {
      "inputs": [
        {
          "internalType": "bytes32",
          "name": "node",
          "type": "bytes32"
        }
      ],
      "name": "contenthash",
      "outputs": [
        {
          "internalType": "bytes",
          "name": "",
          "type": "bytes"
        }
      ],
      "stateMutability": "view",
      "type": "function"
    },
    {
      "inputs": [
        {
          "internalType": "bytes32",
          "name": "node",
          "type": "bytes32"
        },
        {
          "internalType": "bytes32",
          "name": "name",
          "type": "bytes32"
        },
        {
          "internalType": "uint16",
          "name": "resource",
          "type": "uint16"
        }
      ],
      "name": "dnsRecord",
      "outputs": [
        {
          "internalType": "bytes",
          "name": "",
          "type": "bytes"
        }
      ],
      "stateMutability": "view",
      "type": "function"
    },
    {
      "inputs": [
        {
          "internalType": "bytes32",
          "name": "node",
          "type": "bytes32"
        },
        {
          "internalType": "bytes32",
          "name": "name",
          "type": "bytes32"
        }
      ],
      "name": "hasDNSRecords",
      "outputs": [
        {
          "internalType": "bool",
          "name": "",
          "type": "bool"
        }
      ],
      "stateMutability": "view",
      "type": "function"
    },
    {
      "inputs": [
        {
          "internalType": "bytes32",
          "name": "node",
          "type": "bytes32"
        },
        {
          "internalType": "bytes4",
          "name": "interfaceID",
          "type": "bytes4"
        }
      ],
      "name": "interfaceImplementer",
      "outputs": [
        {
          "internalType": "address",
          "name": "",
          "type": "address"
        }
      ],
      "stateMutability": "view",
      "type": "function"
    },
    {
      "inputs": [
        {
          "internalType": "bytes[]",
          "name": "data",
          "type": "bytes[]"
        }
      ],
      "name": "multicall",
      "outputs": [
        {
          "internalType": "bytes[]",
          "name": "results",
          "type": "bytes[]"
        }
      ],
      "stateMutability": "nonpayable",
      "type": "function"
    },
    {
      "inputs": [
        {
          "internalType": "bytes32",
          "name": "node",
          "type": "bytes32"
        }
      ],
      "name": "name",
      "outputs": [
        {
          "internalType": "string",
          "name": "",
          "type": "string"
        }
      ],
      "stateMutability": "view",
      "type": "function"
    },
    {
      "inputs": [
        {
          "internalType": "bytes32",
          "name": "node",
          "type": "bytes32"
        }
      ],
      "name": "pubkey",
      "outputs": [
        {
          "internalType": "bytes32",
          "name": "x",
          "type": "bytes32"
        },
        {
          "internalType": "bytes32",
          "name": "y",
          "type": "bytes32"
        }
      ],
      "stateMutability": "view",
      "type": "function"
    },
    {
      "inputs": [
        {
          "internalType": "bytes32",
          "name": "node",
          "type": "bytes32"
        },
        {
          "internalType": "uint256",
          "name": "contentType",
          "type": "uint256"
        },
        {
          "internalType": "bytes",
          "name": "data",
          "type": "bytes"
        }
      ],
      "name": "setABI",
      "outputs": [],
      "stateMutability": "nonpayable",
      "type": "function"
    },
    {
      "inputs": [
        {
          "internalType": "bytes32",
          "name": "node",
          "type": "bytes32"
        },
        {
          "internalType": "uint256",
          "name": "coinType",
          "type": "uint256"
        },
        {
          "internalType": "bytes",
          "name": "a",
          "type": "bytes"
        }
      ],
      "name": "setAddr",
      "outputs": [],
      "stateMutability": "nonpayable",
      "type": "function"
    },
    {
      "inputs": [
        {
          "internalType": "bytes32",
          "name": "node",
          "type": "bytes32"
        },
        {
          "internalType": "address",
          "name": "a",
          "type": "address"
        }
      ],
      "name": "setAddr",
      "outputs": [],
      "stateMutability": "nonpayable",
      "type": "function"
    },
    {
      "inputs": [
        {
          "internalType": "bytes32",
          "name": "node",
          "type": "bytes32"
        },
        {
          "internalType": "bytes",
          "name": "hash",
          "type": "bytes"
        }
      ],
      "name": "setContenthash",
      "outputs": [],
      "stateMutability": "nonpayable",
      "type": "function"
    },
    {
      "inputs": [
        {
          "internalType": "bytes32",
          "name": "node",
          "type": "bytes32"
        },
        {
          "internalType": "bytes",
          "name": "data",
          "type": "bytes"
        }
      ],
      "name": "setDNSRecords",
      "outputs": [],
      "stateMutability": "nonpayable",
      "type": "function"
    },
    {
      "inputs": [
        {
          "internalType": "bytes32",
          "name": "node",
          "type": "bytes32"
        },
        {
          "internalType": "bytes4",
          "name": "interfaceID",
          "type": "bytes4"
        },
        {
          "internalType": "address",
          "name": "implementer",
          "type": "address"
        }
      ],
      "name": "setInterface",
      "outputs": [],
      "stateMutability": "nonpayable",
      "type": "function"
    },
    {
      "inputs": [
        {
          "internalType": "bytes32",
          "name": "node",
          "type": "bytes32"
        },
        {
          "internalType": "string",
          "name": "newName",
          "type": "string"
        }
      ],
      "name": "setName",
      "outputs": [],
      "stateMutability": "nonpayable",
      "type": "function"
    },
    {
      "inputs": [
        {
          "internalType": "bytes32",
          "name": "node",
          "type": "bytes32"
        },
        {
          "internalType": "bytes32",
          "name": "x",
          "type": "bytes32"
        },
        {
          "internalType": "bytes32",
          "name": "y",
          "type": "bytes32"
        }
      ],
      "name": "setPubkey",
      "outputs": [],
      "stateMutability": "nonpayable",
      "type": "function"
    },
    {
      "inputs": [
        {
          "internalType": "bytes32",
          "name": "node",
          "type": "bytes32"
        },
        {
          "internalType": "string",
          "name": "key",
          "type": "string"
        },
        {
          "internalType": "string",
          "name": "value",
          "type": "string"
        }
      ],
      "name": "setText",
      "outputs": [],
      "stateMutability": "nonpayable",
      "type": "function"
    },
    {
      "inputs": [
        {
          "internalType": "bytes32",
          "name": "node",
          "type": "bytes32"
        },
        {
          "internalType": "bytes",
          "name": "hash",
          "type": "bytes"
        }
      ],
      "name": "setZonehash",
      "outputs": [],
      "stateMutability": "nonpayable",
      "type": "function"
    },
    {
      "inputs": [
        {
          "internalType": "bytes32",
          "name": "node",
          "type": "bytes32"
        },
        {
          "internalType": "string",
          "name": "key",
          "type": "string"
        }
      ],
      "name": "text",
      "outputs": [
        {
          "internalType": "string",
          "name": "",
          "type": "string"
        }
      ],
      "stateMutability": "view",
      "type": "function"
    },
    {
      "inputs": [
        {
          "internalType": "bytes32",
          "name": "node",
          "type": "bytes32"
        }
      ],
      "name": "zonehash",
      "outputs": [
        {
          "internalType": "bytes",
          "name": "",
          "type": "bytes"
        }
      ],
      "stateMutability": "view",
      "type": "function"
    },
    {
      "inputs": [
        {
          "internalType": "address",
          "name": "operator",
          "type": "address"
        },
        {
          "internalType": "bool",
          "name": "approved",
          "type": "bool"
        }
      ],
      "name": "setApprovalForAll",
      "outputs": [],
      "stateMutability": "nonpayable",
      "type": "function"
    },
    {
      "inputs": [
        {
          "internalType": "address",
          "name": "account",
          "type": "address"
        },
        {
          "internalType": "address",
          "name": "operator",
          "type": "address"
        }
      ],
      "name": "isApprovedForAll",
      "outputs": [
        {
          "internalType": "bool",
          "name": "",
          "type": "bool"
        }
      ],
      "stateMutability": "view",
      "type": "function"
    },
    {
      "inputs": [
        {
          "internalType": "bytes4",
          "name": "interfaceID",
          "type": "bytes4"
        }
      ],
      "name": "supportsInterface",
      "outputs": [
        {
          "internalType": "bool",
          "name": "",
          "type": "bool"
        }
      ],
      "stateMutability": "pure",
      "type": "function"
    }
  ],
  "bytecode": "0x60806040523480156200001157600080fd5b506040516200432f3803806200432f833981810160405281019062000037919062000184565b81600b60006101000a81548173ffffffffffffffffffffffffffffffffffffffff021916908373ffffffffffffffffffffffffffffffffffffffff16021790555080600c60006101000a81548173ffffffffffffffffffffffffffffffffffffffff021916908373ffffffffffffffffffffffffffffffffffffffff1602179055505050620001cb565b600080fd5b600073ffffffffffffffffffffffffffffffffffffffff82169050919050565b6000620000f382620000c6565b9050919050565b60006200010782620000e6565b9050919050565b6200011981620000fa565b81146200012557600080fd5b50565b60008151905062000139816200010e565b92915050565b60006200014c82620000e6565b9050919050565b6200015e816200013f565b81146200016a57600080fd5b50565b6000815190506200017e8162000153565b92915050565b600080604083850312156200019e576200019d620000c1565b5b6000620001ae8582860162000128565b9250506020620001c1858286016200016d565b9150509250929050565b61415480620001db6000396000f3fe608060405234801561001057600080fd5b506004361061018e5760003560e01c806377372213116100de578063bc1c58d111610097578063d5fa2b0011610071578063d5fa2b00146104ed578063e59d895d14610509578063e985e9c514610525578063f1cb7e06146105555761018e565b8063bc1c58d114610470578063c8690233146104a0578063ce3decdc146104d15761018e565b806377372213146103a05780638b95dd71146103bc578063a22cb465146103d8578063a8fa5682146103f4578063ac9650d814610424578063ad5780af146104545761018e565b8063304e6ade1161014b57806359d1d43c1161012557806359d1d43c146102f45780635c98042b14610324578063623195b014610354578063691f3431146103705761018e565b8063304e6ade146102785780633b3b57de146102945780634cbf6ba4146102c45761018e565b806301ffc9a7146101935780630af179d7146101c357806310f13a8c146101df578063124a319c146101fb5780632203ab561461022b57806329cd62ea1461025c575b600080fd5b6101ad60048036038101906101a89190612e73565b610585565b6040516101ba9190612ebb565b60405180910390f35b6101dd60048036038101906101d89190612f71565b6105ff565b005b6101f960048036038101906101f49190613027565b610831565b005b610215600480360381019061021091906130bc565b6108df565b604051610222919061313d565b60405180910390f35b6102456004803603810190610240919061318e565b610cf0565b604051610253929190613276565b60405180910390f35b610276600480360381019061027191906132a6565b610e24565b005b610292600480360381019061028d9190612f71565b610eb6565b005b6102ae60048036038101906102a991906132f9565b610f2c565b6040516102bb9190613347565b60405180910390f35b6102de60048036038101906102d99190613362565b610f62565b6040516102eb9190612ebb565b60405180910390f35b61030e600480360381019061030991906133a2565b610fca565b60405161031b9190613457565b60405180910390f35b61033e600480360381019061033991906132f9565b61108f565b60405161034b9190613479565b60405180910390f35b61036e6004803603810190610369919061349b565b611134565b005b61038a600480360381019061038591906132f9565b6111ca565b6040516103979190613457565b60405180910390f35b6103ba60048036038101906103b591906133a2565b61126f565b005b6103d660048036038101906103d1919061363f565b6112e5565b005b6103f260048036038101906103ed9190613706565b6113bb565b005b61040e60048036038101906104099190613780565b611527565b60405161041b9190613479565b60405180910390f35b61043e60048036038101906104399190613829565b61161c565b60405161044b9190613982565b60405180910390f35b61046e600480360381019061046991906132f9565b611756565b005b61048a600480360381019061048591906132f9565b6117c3565b6040516104979190613479565b60405180910390f35b6104ba60048036038101906104b591906132f9565b611868565b6040516104c89291906139b3565b60405180910390f35b6104eb60048036038101906104e69190612f71565b6118a2565b005b610507600480360381019061050291906139dc565b6119bb565b005b610523600480360381019061051e9190613a1c565b6119e7565b005b61053f600480360381019061053a9190613a6f565b611af9565b60405161054c9190612ebb565b60405180910390f35b61056f600480360381019061056a919061318e565b611b8d565b60405161057c9190613479565b60405180910390f35b60007fac9650d8000000000000000000000000000000000000000000000000000000007bffffffffffffffffffffffffffffffffffffffffffffffffffffffff1916827bffffffffffffffffffffffffffffffffffffffffffffffffffffffff191614806105f857506105f782611c44565b5b9050919050565b8261060981611cbe565b61061257600080fd5b60008060608060008061067360008a8a8080601f016020809104026020016040519081016040528093929190818152602001838380828437600081840152601f19601f82011690508083019250505050505050611e9f90919063ffffffff16565b90505b61067f81611ec9565b6107b55760008661ffff1614156106db57806040015195506106a081611edf565b9350836040516020016106b39190613aeb565b6040516020818303038152906040528051906020012091506106d481611f16565b92506107a7565b60006106e682611edf565b9050816040015161ffff168761ffff1614158061071357506107118186611f4f90919063ffffffff16565b155b156107a55761077e8b86898d8d8080601f016020809104026020016040519081016040528093929190818152602001838380828437600081840152601f19601f820116905080830192505050505050508a8b88602001516107749190613b31565b60008b5114611f76565b8160400151965081602001519550809450848051906020012092506107a282611f16565b93505b505b6107b0816122a1565b610676565b50600083511115610826576108258984878b8b8080601f016020809104026020016040519081016040528093929190818152602001838380828437600081840152601f19601f8201169050808301925050505050505088898e8e905061081b9190613b31565b6000895114611f76565b5b505050505050505050565b8461083b81611cbe565b61084457600080fd5b8282600a60008981526020019081526020016000208787604051610869929190613b95565b90815260200160405180910390209190610884929190612bcd565b508484604051610895929190613b95565b6040518091039020867fd8c9334b1a9c2f9da342a0a2b32629c1a229b6445dad78947f674b44444a755087876040516108cf929190613bdb565b60405180910390a3505050505050565b600080600760008581526020019081526020016000206000847bffffffffffffffffffffffffffffffffffffffffffffffffffffffff19167bffffffffffffffffffffffffffffffffffffffffffffffffffffffff1916815260200190815260200160002060009054906101000a900473ffffffffffffffffffffffffffffffffffffffff169050600073ffffffffffffffffffffffffffffffffffffffff168173ffffffffffffffffffffffffffffffffffffffff16146109a45780915050610cea565b60006109af85610f2c565b9050600073ffffffffffffffffffffffffffffffffffffffff168173ffffffffffffffffffffffffffffffffffffffff1614156109f157600092505050610cea565b6000808273ffffffffffffffffffffffffffffffffffffffff167f01ffc9a700000000000000000000000000000000000000000000000000000000604051602401610a3c9190613c0e565b6040516020818303038152906040527f01ffc9a7000000000000000000000000000000000000000000000000000000007bffffffffffffffffffffffffffffffffffffffffffffffffffffffff19166020820180517bffffffffffffffffffffffffffffffffffffffffffffffffffffffff8381831617835250505050604051610ac69190613aeb565b600060405180830381855afa9150503d8060008114610b01576040519150601f19603f3d011682016040523d82523d6000602084013e610b06565b606091505b5091509150811580610b19575060208151105b80610b675750600060f81b81601f81518110610b3857610b37613c29565b5b602001015160f81c60f81b7effffffffffffffffffffffffffffffffffffffffffffffffffffffffffffff1916145b15610b79576000945050505050610cea565b8273ffffffffffffffffffffffffffffffffffffffff1686604051602401610ba19190613c0e565b6040516020818303038152906040527f01ffc9a7000000000000000000000000000000000000000000000000000000007bffffffffffffffffffffffffffffffffffffffffffffffffffffffff19166020820180517bffffffffffffffffffffffffffffffffffffffffffffffffffffffff8381831617835250505050604051610c2b9190613aeb565b600060405180830381855afa9150503d8060008114610c66576040519150601f19603f3d011682016040523d82523d6000602084013e610c6b565b606091505b508092508193505050811580610c82575060208151105b80610cd05750600060f81b81601f81518110610ca157610ca0613c29565b5b602001015160f81c60f81b7effffffffffffffffffffffffffffffffffffffffffffffffffffffffffffff1916145b15610ce2576000945050505050610cea565b829450505050505b92915050565b60006060600080600086815260200190815260200160002090506000600190505b848111610e0457600085821614158015610d49575060008260008381526020019081526020016000208054610d4590613c87565b9050115b15610df85780826000838152602001908152602001600020808054610d6d90613c87565b80601f0160208091040260200160405190810160405280929190818152602001828054610d9990613c87565b8015610de65780601f10610dbb57610100808354040283529160200191610de6565b820191906000526020600020905b815481529060010190602001808311610dc957829003601f168201915b50505050509050935093505050610e1d565b600181901b9050610d11565b5060006040518060200160405280600081525092509250505b9250929050565b82610e2e81611cbe565b610e3757600080fd5b604051806040016040528084815260200183815250600960008681526020019081526020016000206000820151816000015560208201518160010155905050837f1d6f5e03d3f63eb58751986629a5439baee5079ff04f345becb66e23eb154e468484604051610ea89291906139b3565b60405180910390a250505050565b82610ec081611cbe565b610ec957600080fd5b8282600260008781526020019081526020016000209190610eeb929190612c53565b50837fe379c1624ed7e714cc0937528a32359d69d5281337765313dba4e081b72d75788484604051610f1e929190613ce6565b60405180910390a250505050565b600080610f3a83603c611b8d565b9050600081511415610f50576000915050610f5d565b610f59816123eb565b9150505b919050565b60008060066000858152602001908152602001600020600060046000878152602001908152602001600020548152602001908152602001600020600084815260200190815260200160002060009054906101000a900461ffff1661ffff161415905092915050565b6060600a60008581526020019081526020016000208383604051610fef929190613b95565b9081526020016040518091039020805461100890613c87565b80601f016020809104026020016040519081016040528092919081815260200182805461103490613c87565b80156110815780601f1061105657610100808354040283529160200191611081565b820191906000526020600020905b81548152906001019060200180831161106457829003601f168201915b505050505090509392505050565b60606003600083815260200190815260200160002080546110af90613c87565b80601f01602080910402602001604051908101604052809291908181526020018280546110db90613c87565b80156111285780601f106110fd57610100808354040283529160200191611128565b820191906000526020600020905b81548152906001019060200180831161110b57829003601f168201915b50505050509050919050565b8361113e81611cbe565b61114757600080fd5b6000846001866111579190613b31565b161461116257600080fd5b828260008088815260200190815260200160002060008781526020019081526020016000209190611194929190612c53565b5083857faa121bbeef5f32f5961a2a28966e769023910fc9479059ee3495d4c1a696efe360405160405180910390a35050505050565b60606008600083815260200190815260200160002080546111ea90613c87565b80601f016020809104026020016040519081016040528092919081815260200182805461121690613c87565b80156112635780601f1061123857610100808354040283529160200191611263565b820191906000526020600020905b81548152906001019060200180831161124657829003601f168201915b50505050509050919050565b8261127981611cbe565b61128257600080fd5b82826008600087815260200190815260200160002091906112a4929190612bcd565b50837fb7d29e911041e8d9b843369e890bcb72c9388692ba48b65ac54e7214c4c348f784846040516112d7929190613bdb565b60405180910390a250505050565b826112ef81611cbe565b6112f857600080fd5b837f65412581168e88a1e60c6459d7f44ae83ad0832e670826c05a4e2476b57af752848460405161132a929190613276565b60405180910390a2603c83141561137c57837f52d7d861f09ab3d26239d492e8968629f95e9e318cf0b73bfddc441522a15fd2611366846123eb565b6040516113739190613d69565b60405180910390a25b8160016000868152602001908152602001600020600085815260200190815260200160002090805190602001906113b4929190612cd9565b5050505050565b8173ffffffffffffffffffffffffffffffffffffffff163373ffffffffffffffffffffffffffffffffffffffff16141561142a576040517f08c379a000000000000000000000000000000000000000000000000000000000815260040161142190613df6565b60405180910390fd5b80600d60003373ffffffffffffffffffffffffffffffffffffffff1673ffffffffffffffffffffffffffffffffffffffff16815260200190815260200160002060008473ffffffffffffffffffffffffffffffffffffffff1673ffffffffffffffffffffffffffffffffffffffff16815260200190815260200160002060006101000a81548160ff0219169083151502179055508173ffffffffffffffffffffffffffffffffffffffff163373ffffffffffffffffffffffffffffffffffffffff167f17307eab39ab6107e8899845ad3d59bd9653f200f220920489ca2b5937696c318360405161151b9190612ebb565b60405180910390a35050565b606060056000858152602001908152602001600020600060046000878152602001908152602001600020548152602001908152602001600020600084815260200190815260200160002060008361ffff1661ffff168152602001908152602001600020805461159590613c87565b80601f01602080910402602001604051908101604052809291908181526020018280546115c190613c87565b801561160e5780601f106115e35761010080835404028352916020019161160e565b820191906000526020600020905b8154815290600101906020018083116115f157829003601f168201915b505050505090509392505050565b60608282905067ffffffffffffffff81111561163b5761163a613514565b5b60405190808252806020026020018201604052801561166e57816020015b60608152602001906001900390816116595790505b50905060005b8383905081101561174f576000803073ffffffffffffffffffffffffffffffffffffffff168686858181106116ac576116ab613c29565b5b90506020028101906116be9190613e25565b6040516116cc929190613ead565b600060405180830381855af49150503d8060008114611707576040519150601f19603f3d011682016040523d82523d6000602084013e61170c565b606091505b50915091508161171b57600080fd5b8084848151811061172f5761172e613c29565b5b60200260200101819052505050808061174790613ec6565b915050611674565b5092915050565b8061176081611cbe565b61176957600080fd5b60046000838152602001908152602001600020600081548092919061178d90613ec6565b9190505550817fb757169b8492ca2f1c6619d9d76ce22803035c3b1d5f6930dffe7b127c1a198360405160405180910390a25050565b60606002600083815260200190815260200160002080546117e390613c87565b80601f016020809104026020016040519081016040528092919081815260200182805461180f90613c87565b801561185c5780601f106118315761010080835404028352916020019161185c565b820191906000526020600020905b81548152906001019060200180831161183f57829003601f168201915b50505050509050919050565b6000806009600084815260200190815260200160002060000154600960008581526020019081526020016000206001015491509150915091565b826118ac81611cbe565b6118b557600080fd5b60006003600086815260200190815260200160002080546118d590613c87565b80601f016020809104026020016040519081016040528092919081815260200182805461190190613c87565b801561194e5780601f106119235761010080835404028352916020019161194e565b820191906000526020600020905b81548152906001019060200180831161193157829003601f168201915b505050505090508383600360008881526020019081526020016000209190611977929190612c53565b50847f8f15ed4b723ef428f250961da8315675b507046737e19319fc1a4d81bfe87f858286866040516119ac93929190613f0f565b60405180910390a25050505050565b816119c581611cbe565b6119ce57600080fd5b6119e283603c6119dd8561240e565b6112e5565b505050565b826119f181611cbe565b6119fa57600080fd5b81600760008681526020019081526020016000206000857bffffffffffffffffffffffffffffffffffffffffffffffffffffffff19167bffffffffffffffffffffffffffffffffffffffffffffffffffffffff1916815260200190815260200160002060006101000a81548173ffffffffffffffffffffffffffffffffffffffff021916908373ffffffffffffffffffffffffffffffffffffffff160217905550827bffffffffffffffffffffffffffffffffffffffffffffffffffffffff1916847f7c69f06bea0bdef565b709e93a147836b0063ba2dd89f02d0b7e8d931e6a6daa84604051611aeb919061313d565b60405180910390a350505050565b6000600d60008473ffffffffffffffffffffffffffffffffffffffff1673ffffffffffffffffffffffffffffffffffffffff16815260200190815260200160002060008373ffffffffffffffffffffffffffffffffffffffff1673ffffffffffffffffffffffffffffffffffffffff16815260200190815260200160002060009054906101000a900460ff16905092915050565b60606001600084815260200190815260200160002060008381526020019081526020016000208054611bbe90613c87565b80601f0160208091040260200160405190810160405280929190818152602001828054611bea90613c87565b8015611c375780601f10611c0c57610100808354040283529160200191611c37565b820191906000526020600020905b815481529060010190602001808311611c1a57829003601f168201915b5050505050905092915050565b60007f59d1d43c000000000000000000000000000000000000000000000000000000007bffffffffffffffffffffffffffffffffffffffffffffffffffffffff1916827bffffffffffffffffffffffffffffffffffffffffffffffffffffffff19161480611cb75750611cb682612472565b5b9050919050565b600080600b60009054906101000a900473ffffffffffffffffffffffffffffffffffffffff1673ffffffffffffffffffffffffffffffffffffffff166302571be3846040518263ffffffff1660e01b8152600401611d1c9190613f48565b602060405180830381865afa158015611d39573d6000803e3d6000fd5b505050506040513d601f19601f82011682018060405250810190611d5d9190613f78565b9050600c60009054906101000a900473ffffffffffffffffffffffffffffffffffffffff1673ffffffffffffffffffffffffffffffffffffffff168173ffffffffffffffffffffffffffffffffffffffff161415611e5757600c60009054906101000a900473ffffffffffffffffffffffffffffffffffffffff1673ffffffffffffffffffffffffffffffffffffffff16636352211e8460001c6040518263ffffffff1660e01b8152600401611e139190613fa5565b602060405180830381865afa158015611e30573d6000803e3d6000fd5b505050506040513d601f19601f82011682018060405250810190611e549190613f78565b90505b3373ffffffffffffffffffffffffffffffffffffffff168173ffffffffffffffffffffffffffffffffffffffff161480611e975750611e968133611af9565b5b915050919050565b611ea7612d5f565b828160000181905250818160c0018181525050611ec3816122a1565b92915050565b6000816000015151826020015110159050919050565b6060611f0f8260200151611efb846000015185602001516124ec565b84600001516125699092919063ffffffff16565b9050919050565b6060611f488260a001518360a001518460c00151611f349190613b31565b84600001516125699092919063ffffffff16565b9050919050565b600081518351148015611f6e5750611f6d83600084600087516125fe565b5b905092915050565b6000600460008981526020019081526020016000205490506000878051906020012090506000611fb18686896125699092919063ffffffff16565b90508315612123576000600560008c81526020019081526020016000206000858152602001908152602001600020600084815260200190815260200160002060008a61ffff1661ffff168152602001908152602001600020805461201490613c87565b90501461208a57600660008b815260200190815260200160002060008481526020019081526020016000206000838152602001908152602001600020600081819054906101000a900461ffff168092919061206e90613fc0565b91906101000a81548161ffff021916908361ffff160217905550505b600560008b81526020019081526020016000206000848152602001908152602001600020600083815260200190815260200160002060008961ffff1661ffff16815260200190815260200160002060006120e49190612daa565b897f03528ed0c2a3ebc993b12ce3c16bb382f9c7d88ef7d8a1bf290eaf35955a12078a8a604051612116929190613ff9565b60405180910390a2612295565b6000600560008c81526020019081526020016000206000858152602001908152602001600020600084815260200190815260200160002060008a61ffff1661ffff168152602001908152602001600020805461217e90613c87565b905014156121f557600660008b815260200190815260200160002060008481526020019081526020016000206000838152602001908152602001600020600081819054906101000a900461ffff16809291906121d990614029565b91906101000a81548161ffff021916908361ffff160217905550505b80600560008c81526020019081526020016000206000858152602001908152602001600020600084815260200190815260200160002060008a61ffff1661ffff1681526020019081526020016000209080519060200190612257929190612cd9565b50897f52a608b3303a48862d07a73d82fa221318c0027fbbcfb1b2329bface3f19ff2b8a8a8460405161228c93929190614054565b60405180910390a25b50505050505050505050565b8060c001518160200181815250508060000151518160200151106122c4576123e8565b60006122d8826000015183602001516124ec565b82602001516122e79190614099565b905061230081836000015161262290919063ffffffff16565b826040019061ffff16908161ffff16815250506002816123209190614099565b905061233981836000015161262290919063ffffffff16565b826060019061ffff16908161ffff16815250506002816123599190614099565b905061237281836000015161265190919063ffffffff16565b826080019063ffffffff16908163ffffffff16815250506004816123969190614099565b905060006123b182846000015161262290919063ffffffff16565b61ffff1690506002826123c49190614099565b9150818360a001818152505080826123dc9190614099565b8360c001818152505050505b50565b600060148251146123fb57600080fd5b600c6101000a6020830151049050919050565b6060601467ffffffffffffffff81111561242b5761242a613514565b5b6040519080825280601f01601f19166020018201604052801561245d5781602001600182028036833780820191505090505b509050600c6101000a82026020820152919050565b60007fc8690233000000000000000000000000000000000000000000000000000000007bffffffffffffffffffffffffffffffffffffffffffffffffffffffff1916827bffffffffffffffffffffffffffffffffffffffffffffffffffffffff191614806124e557506124e482612682565b5b9050919050565b6000808290505b600115612554578351811061250b5761250a6140ef565b5b600061252082866126fc90919063ffffffff16565b60ff1690506001816125329190614099565b8261253d9190614099565b9150600081141561254e5750612554565b506124f3565b82816125609190613b31565b91505092915050565b6060835182846125799190614099565b111561258457600080fd5b60008267ffffffffffffffff8111156125a05761259f613514565b5b6040519080825280601f01601f1916602001820160405280156125d25781602001600182028036833780820191505090505b50905060008060208301915085602088010190506125f1828287612727565b8293505050509392505050565b600061260b84848461278b565b61261687878561278b565b14905095945050505050565b600082516002836126339190614099565b111561263e57600080fd5b61ffff8260028501015116905092915050565b600082516004836126629190614099565b111561266d57600080fd5b63ffffffff8260048501015116905092915050565b60007f691f3431000000000000000000000000000000000000000000000000000000007bffffffffffffffffffffffffffffffffffffffffffffffffffffffff1916827bffffffffffffffffffffffffffffffffffffffffffffffffffffffff191614806126f557506126f4826127b7565b5b9050919050565b600082828151811061271157612710613c29565b5b602001015160f81c60f81b60f81c905092915050565b5b6020811061276657815183526020836127419190614099565b92506020826127509190614099565b915060208161275f9190613b31565b9050612728565b60006001826020036101000a0390508019835116818551168181178652505050505050565b60008351828461279b9190614099565b11156127a657600080fd5b818360208601012090509392505050565b60007f124a319c000000000000000000000000000000000000000000000000000000007bffffffffffffffffffffffffffffffffffffffffffffffffffffffff1916827bffffffffffffffffffffffffffffffffffffffffffffffffffffffff1916148061282a575061282982612831565b5b9050919050565b60007fa8fa5682000000000000000000000000000000000000000000000000000000007bffffffffffffffffffffffffffffffffffffffffffffffffffffffff1916827bffffffffffffffffffffffffffffffffffffffffffffffffffffffff191614806128fc57507f5c98042b000000000000000000000000000000000000000000000000000000007bffffffffffffffffffffffffffffffffffffffffffffffffffffffff1916827bffffffffffffffffffffffffffffffffffffffffffffffffffffffff1916145b8061290c575061290b82612913565b5b9050919050565b60007fbc1c58d1000000000000000000000000000000000000000000000000000000007bffffffffffffffffffffffffffffffffffffffffffffffffffffffff1916827bffffffffffffffffffffffffffffffffffffffffffffffffffffffff1916148061298657506129858261298d565b5b9050919050565b60007f3b3b57de000000000000000000000000000000000000000000000000000000007bffffffffffffffffffffffffffffffffffffffffffffffffffffffff1916827bffffffffffffffffffffffffffffffffffffffffffffffffffffffff19161480612a5857507ff1cb7e06000000000000000000000000000000000000000000000000000000007bffffffffffffffffffffffffffffffffffffffffffffffffffffffff1916827bffffffffffffffffffffffffffffffffffffffffffffffffffffffff1916145b80612a685750612a6782612a6f565b5b9050919050565b60007f2203ab56000000000000000000000000000000000000000000000000000000007bffffffffffffffffffffffffffffffffffffffffffffffffffffffff1916827bffffffffffffffffffffffffffffffffffffffffffffffffffffffff19161480612ae25750612ae182612ae9565b5b9050919050565b60007fac9650d8000000000000000000000000000000000000000000000000000000007bffffffffffffffffffffffffffffffffffffffffffffffffffffffff1916827bffffffffffffffffffffffffffffffffffffffffffffffffffffffff19161480612b5c5750612b5b82612b63565b5b9050919050565b60007f01ffc9a7000000000000000000000000000000000000000000000000000000007bffffffffffffffffffffffffffffffffffffffffffffffffffffffff1916827bffffffffffffffffffffffffffffffffffffffffffffffffffffffff1916149050919050565b828054612bd990613c87565b90600052602060002090601f016020900481019282612bfb5760008555612c42565b82601f10612c1457803560ff1916838001178555612c42565b82800160010185558215612c42579182015b82811115612c41578235825591602001919060010190612c26565b5b509050612c4f9190612dea565b5090565b828054612c5f90613c87565b90600052602060002090601f016020900481019282612c815760008555612cc8565b82601f10612c9a57803560ff1916838001178555612cc8565b82800160010185558215612cc8579182015b82811115612cc7578235825591602001919060010190612cac565b5b509050612cd59190612dea565b5090565b828054612ce590613c87565b90600052602060002090601f016020900481019282612d075760008555612d4e565b82601f10612d2057805160ff1916838001178555612d4e565b82800160010185558215612d4e579182015b82811115612d4d578251825591602001919060010190612d32565b5b509050612d5b9190612dea565b5090565b6040518060e001604052806060815260200160008152602001600061ffff168152602001600061ffff168152602001600063ffffffff16815260200160008152602001600081525090565b508054612db690613c87565b6000825580601f10612dc85750612de7565b601f016020900490600052602060002090810190612de69190612dea565b5b50565b5b80821115612e03576000816000905550600101612deb565b5090565b6000604051905090565b600080fd5b600080fd5b60007fffffffff0000000000000000000000000000000000000000000000000000000082169050919050565b612e5081612e1b565b8114612e5b57600080fd5b50565b600081359050612e6d81612e47565b92915050565b600060208284031215612e8957612e88612e11565b5b6000612e9784828501612e5e565b91505092915050565b60008115159050919050565b612eb581612ea0565b82525050565b6000602082019050612ed06000830184612eac565b92915050565b6000819050919050565b612ee981612ed6565b8114612ef457600080fd5b50565b600081359050612f0681612ee0565b92915050565b600080fd5b600080fd5b600080fd5b60008083601f840112612f3157612f30612f0c565b5b8235905067ffffffffffffffff811115612f4e57612f4d612f11565b5b602083019150836001820283011115612f6a57612f69612f16565b5b9250929050565b600080600060408486031215612f8a57612f89612e11565b5b6000612f9886828701612ef7565b935050602084013567ffffffffffffffff811115612fb957612fb8612e16565b5b612fc586828701612f1b565b92509250509250925092565b60008083601f840112612fe757612fe6612f0c565b5b8235905067ffffffffffffffff81111561300457613003612f11565b5b6020830191508360018202830111156130205761301f612f16565b5b9250929050565b60008060008060006060868803121561304357613042612e11565b5b600061305188828901612ef7565b955050602086013567ffffffffffffffff81111561307257613071612e16565b5b61307e88828901612fd1565b9450945050604086013567ffffffffffffffff8111156130a1576130a0612e16565b5b6130ad88828901612fd1565b92509250509295509295909350565b600080604083850312156130d3576130d2612e11565b5b60006130e185828601612ef7565b92505060206130f285828601612e5e565b9150509250929050565b600073ffffffffffffffffffffffffffffffffffffffff82169050919050565b6000613127826130fc565b9050919050565b6131378161311c565b82525050565b6000602082019050613152600083018461312e565b92915050565b6000819050919050565b61316b81613158565b811461317657600080fd5b50565b60008135905061318881613162565b92915050565b600080604083850312156131a5576131a4612e11565b5b60006131b385828601612ef7565b92505060206131c485828601613179565b9150509250929050565b6131d781613158565b82525050565b600081519050919050565b600082825260208201905092915050565b60005b838110156132175780820151818401526020810190506131fc565b83811115613226576000848401525b50505050565b6000601f19601f8301169050919050565b6000613248826131dd565b61325281856131e8565b93506132628185602086016131f9565b61326b8161322c565b840191505092915050565b600060408201905061328b60008301856131ce565b818103602083015261329d818461323d565b90509392505050565b6000806000606084860312156132bf576132be612e11565b5b60006132cd86828701612ef7565b93505060206132de86828701612ef7565b92505060406132ef86828701612ef7565b9150509250925092565b60006020828403121561330f5761330e612e11565b5b600061331d84828501612ef7565b91505092915050565b6000613331826130fc565b9050919050565b61334181613326565b82525050565b600060208201905061335c6000830184613338565b92915050565b6000806040838503121561337957613378612e11565b5b600061338785828601612ef7565b925050602061339885828601612ef7565b9150509250929050565b6000806000604084860312156133bb576133ba612e11565b5b60006133c986828701612ef7565b935050602084013567ffffffffffffffff8111156133ea576133e9612e16565b5b6133f686828701612fd1565b92509250509250925092565b600081519050919050565b600082825260208201905092915050565b600061342982613402565b613433818561340d565b93506134438185602086016131f9565b61344c8161322c565b840191505092915050565b60006020820190508181036000830152613471818461341e565b905092915050565b60006020820190508181036000830152613493818461323d565b905092915050565b600080600080606085870312156134b5576134b4612e11565b5b60006134c387828801612ef7565b94505060206134d487828801613179565b935050604085013567ffffffffffffffff8111156134f5576134f4612e16565b5b61350187828801612f1b565b925092505092959194509250565b600080fd5b7f4e487b7100000000000000000000000000000000000000000000000000000000600052604160045260246000fd5b61354c8261322c565b810181811067ffffffffffffffff8211171561356b5761356a613514565b5b80604052505050565b600061357e612e07565b905061358a8282613543565b919050565b600067ffffffffffffffff8211156135aa576135a9613514565b5b6135b38261322c565b9050602081019050919050565b82818337600083830152505050565b60006135e26135dd8461358f565b613574565b9050828152602081018484840111156135fe576135fd61350f565b5b6136098482856135c0565b509392505050565b600082601f83011261362657613625612f0c565b5b81356136368482602086016135cf565b91505092915050565b60008060006060848603121561365857613657612e11565b5b600061366686828701612ef7565b935050602061367786828701613179565b925050604084013567ffffffffffffffff81111561369857613697612e16565b5b6136a486828701613611565b9150509250925092565b6136b78161311c565b81146136c257600080fd5b50565b6000813590506136d4816136ae565b92915050565b6136e381612ea0565b81146136ee57600080fd5b50565b600081359050613700816136da565b92915050565b6000806040838503121561371d5761371c612e11565b5b600061372b858286016136c5565b925050602061373c858286016136f1565b9150509250929050565b600061ffff82169050919050565b61375d81613746565b811461376857600080fd5b50565b60008135905061377a81613754565b92915050565b60008060006060848603121561379957613798612e11565b5b60006137a786828701612ef7565b93505060206137b886828701612ef7565b92505060406137c98682870161376b565b9150509250925092565b60008083601f8401126137e9576137e8612f0c565b5b8235905067ffffffffffffffff81111561380657613805612f11565b5b60208301915083602082028301111561382257613821612f16565b5b9250929050565b600080602083850312156138405761383f612e11565b5b600083013567ffffffffffffffff81111561385e5761385d612e16565b5b61386a858286016137d3565b92509250509250929050565b600081519050919050565b600082825260208201905092915050565b6000819050602082019050919050565b600082825260208201905092915050565b60006138be826131dd565b6138c881856138a2565b93506138d88185602086016131f9565b6138e18161322c565b840191505092915050565b60006138f883836138b3565b905092915050565b6000602082019050919050565b600061391882613876565b6139228185613881565b93508360208202850161393485613892565b8060005b85811015613970578484038952815161395185826138ec565b945061395c83613900565b925060208a01995050600181019050613938565b50829750879550505050505092915050565b6000602082019050818103600083015261399c818461390d565b905092915050565b6139ad81612ed6565b82525050565b60006040820190506139c860008301856139a4565b6139d560208301846139a4565b9392505050565b600080604083850312156139f3576139f2612e11565b5b6000613a0185828601612ef7565b9250506020613a12858286016136c5565b9150509250929050565b600080600060608486031215613a3557613a34612e11565b5b6000613a4386828701612ef7565b9350506020613a5486828701612e5e565b9250506040613a65868287016136c5565b9150509250925092565b60008060408385031215613a8657613a85612e11565b5b6000613a94858286016136c5565b9250506020613aa5858286016136c5565b9150509250929050565b600081905092915050565b6000613ac5826131dd565b613acf8185613aaf565b9350613adf8185602086016131f9565b80840191505092915050565b6000613af78284613aba565b915081905092915050565b7f4e487b7100000000000000000000000000000000000000000000000000000000600052601160045260246000fd5b6000613b3c82613158565b9150613b4783613158565b925082821015613b5a57613b59613b02565b5b828203905092915050565b600081905092915050565b6000613b7c8385613b65565b9350613b898385846135c0565b82840190509392505050565b6000613ba2828486613b70565b91508190509392505050565b6000613bba838561340d565b9350613bc78385846135c0565b613bd08361322c565b840190509392505050565b60006020820190508181036000830152613bf6818486613bae565b90509392505050565b613c0881612e1b565b82525050565b6000602082019050613c236000830184613bff565b92915050565b7f4e487b7100000000000000000000000000000000000000000000000000000000600052603260045260246000fd5b7f4e487b7100000000000000000000000000000000000000000000000000000000600052602260045260246000fd5b60006002820490506001821680613c9f57607f821691505b60208210811415613cb357613cb2613c58565b5b50919050565b6000613cc583856131e8565b9350613cd28385846135c0565b613cdb8361322c565b840190509392505050565b60006020820190508181036000830152613d01818486613cb9565b90509392505050565b6000819050919050565b6000613d2f613d2a613d25846130fc565b613d0a565b6130fc565b9050919050565b6000613d4182613d14565b9050919050565b6000613d5382613d36565b9050919050565b613d6381613d48565b82525050565b6000602082019050613d7e6000830184613d5a565b92915050565b7f455243313135353a2073657474696e6720617070726f76616c2073746174757360008201527f20666f722073656c660000000000000000000000000000000000000000000000602082015250565b6000613de060298361340d565b9150613deb82613d84565b604082019050919050565b60006020820190508181036000830152613e0f81613dd3565b9050919050565b600080fd5b600080fd5b600080fd5b60008083356001602003843603038112613e4257613e41613e16565b5b80840192508235915067ffffffffffffffff821115613e6457613e63613e1b565b5b602083019250600182023603831315613e8057613e7f613e20565b5b509250929050565b6000613e948385613aaf565b9350613ea18385846135c0565b82840190509392505050565b6000613eba828486613e88565b91508190509392505050565b6000613ed182613158565b91507fffffffffffffffffffffffffffffffffffffffffffffffffffffffffffffffff821415613f0457613f03613b02565b5b600182019050919050565b60006040820190508181036000830152613f29818661323d565b90508181036020830152613f3e818486613cb9565b9050949350505050565b6000602082019050613f5d60008301846139a4565b92915050565b600081519050613f72816136ae565b92915050565b600060208284031215613f8e57613f8d612e11565b5b6000613f9c84828501613f63565b91505092915050565b6000602082019050613fba60008301846131ce565b92915050565b6000613fcb82613746565b91506000821415613fdf57613fde613b02565b5b600182039050919050565b613ff381613746565b82525050565b60006040820190508181036000830152614013818561323d565b90506140226020830184613fea565b9392505050565b600061403482613746565b915061ffff82141561404957614048613b02565b5b600182019050919050565b6000606082019050818103600083015261406e818661323d565b905061407d6020830185613fea565b818103604083015261408f818461323d565b9050949350505050565b60006140a482613158565b91506140af83613158565b9250827fffffffffffffffffffffffffffffffffffffffffffffffffffffffffffffffff038211156140e4576140e3613b02565b5b828201905092915050565b7f4e487b7100000000000000000000000000000000000000000000000000000000600052600160045260246000fdfea2646970667358221220a132487955473ea835149967c6350152f5df5bc0a48acc0d6e801522b3884a2b64736f6c634300080b0033",
  "immutableReferences": {},
  "source": "// SPDX-License-Identifier: MIT\npragma solidity >=0.8.4;\n\nimport \"../registry/ENS.sol\";\nimport \"./profiles/ABIResolver.sol\";\nimport \"./profiles/AddrResolver.sol\";\nimport \"./profiles/ContentHashResolver.sol\";\nimport \"./profiles/DNSResolver.sol\";\nimport \"./profiles/InterfaceResolver.sol\";\nimport \"./profiles/NameResolver.sol\";\nimport \"./profiles/PubkeyResolver.sol\";\nimport \"./profiles/TextResolver.sol\";\nimport \"./Multicallable.sol\";\n\ninterface INameWrapper {\n    function ownerOf(uint256 id) external view returns (address);\n}\n\n/**\n * A simple resolver anyone can use; only allows the owner of a node to set its\n * address.\n */\ncontract PublicResolver is Multicallable, ABIResolver, AddrResolver, ContentHashResolver, DNSResolver, InterfaceResolver, NameResolver, PubkeyResolver, TextResolver {\n    ENS ens;\n    INameWrapper nameWrapper;\n\n    /**\n     * A mapping of operators. An address that is authorised for an address\n     * may make any changes to the name that the owner could, but may not update\n     * the set of authorisations.\n     * (owner, operator) => approved\n     */\n    mapping(address => mapping(address => bool)) private _operatorApprovals;\n\n    // Logged when an operator is added or removed.\n    event ApprovalForAll(address indexed owner, address indexed operator, bool approved);\n\n    constructor(ENS _ens, INameWrapper wrapperAddress){\n        ens = _ens;\n        nameWrapper = wrapperAddress;\n    }\n\n    /**\n     * @dev See {IERC1155-setApprovalForAll}.\n     */\n    function setApprovalForAll(address operator, bool approved) external{\n        require(\n            msg.sender != operator,\n            \"ERC1155: setting approval status for self\"\n        );\n\n        _operatorApprovals[msg.sender][operator] = approved;\n        emit ApprovalForAll(msg.sender, operator, approved);\n    }\n\n    function isAuthorised(bytes32 node) internal override view returns(bool) {\n        address owner = ens.owner(node);\n        if(owner == address(nameWrapper) ){\n            owner = nameWrapper.ownerOf(uint256(node));\n        }\n        return owner == msg.sender || isApprovedForAll(owner, msg.sender);\n    }\n\n    /**\n     * @dev See {IERC1155-isApprovedForAll}.\n     */\n    function isApprovedForAll(address account, address operator) public view returns (bool){\n        return _operatorApprovals[account][operator];\n    }\n\n    function supportsInterface(bytes4 interfaceID) public override(Multicallable, ABIResolver, AddrResolver, ContentHashResolver, DNSResolver, InterfaceResolver, NameResolver, PubkeyResolver, TextResolver) pure returns(bool) {\n        return interfaceID == type(IMulticallable).interfaceId || super.supportsInterface(interfaceID);\n    }\n}\n",
  "sourcePath": "/Users/tyler/projects/toyProjects/setENSName/contracts/resolvers/PublicResolver.sol",
  "compiler": {
    "name": "solc",
    "version": "0.8.11+commit.d7f03943.Emscripten.clang"
  },
  "schemaVersion": "3.4.4",
  "updatedAt": "2022-01-26T15:54:06.131Z",
  "devdoc": {
    "kind": "dev",
    "methods": {
      "ABI(bytes32,uint256)": {
        "params": {
          "contentTypes": "A bitwise OR of the ABI formats accepted by the caller.",
          "node": "The ENS node to query"
        },
        "returns": {
          "_0": "contentType The content type of the return value",
          "_1": "data The ABI data"
        }
      },
      "addr(bytes32)": {
        "params": {
          "node": "The ENS node to query."
        },
        "returns": {
          "_0": "The associated address."
        }
      },
      "clearDNSZone(bytes32)": {
        "params": {
          "node": "the namehash of the node for which to clear the zone"
        }
      },
      "contenthash(bytes32)": {
        "params": {
          "node": "The ENS node to query."
        },
        "returns": {
          "_0": "The associated contenthash."
        }
      },
      "dnsRecord(bytes32,bytes32,uint16)": {
        "params": {
          "name": "the keccak-256 hash of the fully-qualified name for which to fetch the record",
          "node": "the namehash of the node for which to fetch the record",
          "resource": "the ID of the resource as per https://en.wikipedia.org/wiki/List_of_DNS_record_types"
        },
        "returns": {
          "_0": "the DNS record in wire format if present, otherwise empty"
        }
      },
      "hasDNSRecords(bytes32,bytes32)": {
        "params": {
          "name": "the namehash of the node for which to check the records",
          "node": "the namehash of the node for which to check the records"
        }
      },
      "interfaceImplementer(bytes32,bytes4)": {
        "params": {
          "interfaceID": "The EIP 165 interface ID to check for.",
          "node": "The ENS node to query."
        },
        "returns": {
          "_0": "The address that implements this interface, or 0 if the interface is unsupported."
        }
      },
      "isApprovedForAll(address,address)": {
        "details": "See {IERC1155-isApprovedForAll}."
      },
      "name(bytes32)": {
        "params": {
          "node": "The ENS node to query."
        },
        "returns": {
          "_0": "The associated name."
        }
      },
      "pubkey(bytes32)": {
        "params": {
          "node": "The ENS node to query"
        },
        "returns": {
          "x": "The X coordinate of the curve point for the public key.",
          "y": "The Y coordinate of the curve point for the public key."
        }
      },
      "setABI(bytes32,uint256,bytes)": {
        "params": {
          "contentType": "The content type of the ABI",
          "data": "The ABI data.",
          "node": "The node to update."
        }
      },
      "setAddr(bytes32,address)": {
        "params": {
          "a": "The address to set.",
          "node": "The node to update."
        }
      },
      "setApprovalForAll(address,bool)": {
        "details": "See {IERC1155-setApprovalForAll}."
      },
      "setContenthash(bytes32,bytes)": {
        "params": {
          "hash": "The contenthash to set",
          "node": "The node to update."
        }
      },
      "setDNSRecords(bytes32,bytes)": {
        "params": {
          "data": "the DNS wire format records to set",
          "node": "the namehash of the node for which to set the records"
        }
      },
      "setInterface(bytes32,bytes4,address)": {
        "params": {
          "implementer": "The address of a contract that implements this interface for this node.",
          "interfaceID": "The EIP 165 interface ID.",
          "node": "The node to update."
        }
      },
      "setName(bytes32,string)": {
        "params": {
          "node": "The node to update."
        }
      },
      "setPubkey(bytes32,bytes32,bytes32)": {
        "params": {
          "node": "The ENS node to query",
          "x": "the X coordinate of the curve point for the public key.",
          "y": "the Y coordinate of the curve point for the public key."
        }
      },
      "setText(bytes32,string,string)": {
        "params": {
          "key": "The key to set.",
          "node": "The node to update.",
          "value": "The text data value to set."
        }
      },
      "setZonehash(bytes32,bytes)": {
        "params": {
          "hash": "The zonehash to set",
          "node": "The node to update."
        }
      },
      "text(bytes32,string)": {
        "params": {
          "key": "The text data key to query.",
          "node": "The ENS node to query."
        },
        "returns": {
          "_0": "The associated text data."
        }
      },
      "zonehash(bytes32)": {
        "params": {
          "node": "The ENS node to query."
        },
        "returns": {
          "_0": "The associated contenthash."
        }
      }
    },
    "version": 1
  },
  "userdoc": {
    "kind": "user",
    "methods": {
      "ABI(bytes32,uint256)": {
        "notice": "Returns the ABI associated with an ENS node. Defined in EIP205."
      },
      "addr(bytes32)": {
        "notice": "Returns the address associated with an ENS node."
      },
      "clearDNSZone(bytes32)": {
        "notice": "Clear all information for a DNS zone."
      },
      "contenthash(bytes32)": {
        "notice": "Returns the contenthash associated with an ENS node."
      },
      "dnsRecord(bytes32,bytes32,uint16)": {
        "notice": "Obtain a DNS record."
      },
      "hasDNSRecords(bytes32,bytes32)": {
        "notice": "Check if a given node has records."
      },
      "interfaceImplementer(bytes32,bytes4)": {
        "notice": "Returns the address of a contract that implements the specified interface for this name. If an implementer has not been set for this interfaceID and name, the resolver will query the contract at `addr()`. If `addr()` is set, a contract exists at that address, and that contract implements EIP165 and returns `true` for the specified interfaceID, its address will be returned."
      },
      "name(bytes32)": {
        "notice": "Returns the name associated with an ENS node, for reverse records. Defined in EIP181."
      },
      "pubkey(bytes32)": {
        "notice": "Returns the SECP256k1 public key associated with an ENS node. Defined in EIP 619."
      },
      "setABI(bytes32,uint256,bytes)": {
        "notice": "Sets the ABI associated with an ENS node. Nodes may have one ABI of each content type. To remove an ABI, set it to the empty string."
      },
      "setAddr(bytes32,address)": {
        "notice": "Sets the address associated with an ENS node. May only be called by the owner of that node in the ENS registry."
      },
      "setContenthash(bytes32,bytes)": {
        "notice": "Sets the contenthash associated with an ENS node. May only be called by the owner of that node in the ENS registry."
      },
      "setDNSRecords(bytes32,bytes)": {
        "notice": "Set one or more DNS records.  Records are supplied in wire-format. Records with the same node/name/resource must be supplied one after the other to ensure the data is updated correctly. For example, if the data was supplied:     a.example.com IN A 1.2.3.4     a.example.com IN A 5.6.7.8     www.example.com IN CNAME a.example.com. then this would store the two A records for a.example.com correctly as a single RRSET, however if the data was supplied:     a.example.com IN A 1.2.3.4     www.example.com IN CNAME a.example.com.     a.example.com IN A 5.6.7.8 then this would store the first A record, the CNAME, then the second A record which would overwrite the first."
      },
      "setInterface(bytes32,bytes4,address)": {
        "notice": "Sets an interface associated with a name. Setting the address to 0 restores the default behaviour of querying the contract at `addr()` for interface support."
      },
      "setName(bytes32,string)": {
        "notice": "Sets the name associated with an ENS node, for reverse records. May only be called by the owner of that node in the ENS registry."
      },
      "setPubkey(bytes32,bytes32,bytes32)": {
        "notice": "Sets the SECP256k1 public key associated with an ENS node."
      },
      "setText(bytes32,string,string)": {
        "notice": "Sets the text data associated with an ENS node and key. May only be called by the owner of that node in the ENS registry."
      },
      "setZonehash(bytes32,bytes)": {
        "notice": "setZonehash sets the hash for the zone. May only be called by the owner of that node in the ENS registry."
      },
      "text(bytes32,string)": {
        "notice": "Returns the text data associated with an ENS node and key."
      },
      "zonehash(bytes32)": {
        "notice": "zonehash obtains the hash for the zone."
      }
    },
    "notice": "A simple resolver anyone can use; only allows the owner of a node to set its address.",
    "version": 1
  }
}