{
  "contractName": "ReverseRegistrar",
  "abi": [
    {
      "inputs": [
        {
          "internalType": "contract ENS",
          "name": "ensAddr",
          "type": "address"
        },
        {
          "internalType": "contract NameResolver",
          "name": "resolverAddr",
          "type": "address"
        }
      ],
      "stateMutability": "nonpayable",
      "type": "constructor"
    },
    {
      "inputs": [],
      "name": "ADDR_REVERSE_NODE",
      "outputs": [
        {
          "internalType": "bytes32",
          "name": "",
          "type": "bytes32"
        }
      ],
      "stateMutability": "view",
      "type": "function"
    },
    {
      "inputs": [],
      "name": "defaultResolver",
      "outputs": [
        {
          "internalType": "contract NameResolver",
          "name": "",
          "type": "address"
        }
      ],
      "stateMutability": "view",
      "type": "function"
    },
    {
      "inputs": [],
      "name": "ens",
      "outputs": [
        {
          "internalType": "contract ENS",
          "name": "",
          "type": "address"
        }
      ],
      "stateMutability": "view",
      "type": "function"
    },
    {
      "inputs": [
        {
          "internalType": "address",
          "name": "owner",
          "type": "address"
        }
      ],
      "name": "claim",
      "outputs": [
        {
          "internalType": "bytes32",
          "name": "",
          "type": "bytes32"
        }
      ],
      "stateMutability": "nonpayable",
      "type": "function"
    },
    {
      "inputs": [
        {
          "internalType": "address",
          "name": "owner",
          "type": "address"
        },
        {
          "internalType": "address",
          "name": "resolver",
          "type": "address"
        }
      ],
      "name": "claimWithResolver",
      "outputs": [
        {
          "internalType": "bytes32",
          "name": "",
          "type": "bytes32"
        }
      ],
      "stateMutability": "nonpayable",
      "type": "function"
    },
    {
      "inputs": [
        {
          "internalType": "string",
          "name": "name",
          "type": "string"
        }
      ],
      "name": "setName",
      "outputs": [
        {
          "internalType": "bytes32",
          "name": "",
          "type": "bytes32"
        }
      ],
      "stateMutability": "nonpayable",
      "type": "function"
    },
    {
      "inputs": [
        {
          "internalType": "address",
          "name": "addr",
          "type": "address"
        }
      ],
      "name": "node",
      "outputs": [
        {
          "internalType": "bytes32",
          "name": "",
          "type": "bytes32"
        }
      ],
      "stateMutability": "pure",
      "type": "function"
    }
  ],
  "bytecode": "0x608060405234801561001057600080fd5b50604051610d89380380610d898339818101604052604081101561003357600080fd5b810190808051906020019092919080519060200190929190505050816000806101000a81548173ffffffffffffffffffffffffffffffffffffffff021916908373ffffffffffffffffffffffffffffffffffffffff16021790555080600160006101000a81548173ffffffffffffffffffffffffffffffffffffffff021916908373ffffffffffffffffffffffffffffffffffffffff16021790555060008060009054906101000a900473ffffffffffffffffffffffffffffffffffffffff1673ffffffffffffffffffffffffffffffffffffffff166302571be37f91d1777781884d03a6757a803996e38de2a42967fb37eeaca72729271025a9e260001b6040518263ffffffff1660e01b81526004018082815260200191505060206040518083038186803b15801561016657600080fd5b505afa15801561017a573d6000803e3d6000fd5b505050506040513d602081101561019057600080fd5b81019080805190602001909291905050509050600073ffffffffffffffffffffffffffffffffffffffff168173ffffffffffffffffffffffffffffffffffffffff161461027d578073ffffffffffffffffffffffffffffffffffffffff16631e83409a336040518263ffffffff1660e01b8152600401808273ffffffffffffffffffffffffffffffffffffffff168152602001915050602060405180830381600087803b15801561024057600080fd5b505af1158015610254573d6000803e3d6000fd5b505050506040513d602081101561026a57600080fd5b8101908080519060200190929190505050505b505050610afa8061028f6000396000f3fe608060405234801561001057600080fd5b506004361061007d5760003560e01c80637cf8a2eb1161005b5780637cf8a2eb14610186578063828eab0e146101a4578063bffbe61c146101d8578063c47f0027146102305761007d565b80630f5a5466146100825780631e83409a146100fa5780633f15457f14610152575b600080fd5b6100e46004803603604081101561009857600080fd5b81019080803573ffffffffffffffffffffffffffffffffffffffff169060200190929190803573ffffffffffffffffffffffffffffffffffffffff1690602001909291905050506102ff565b6040518082815260200191505060405180910390f35b61013c6004803603602081101561011057600080fd5b81019080803573ffffffffffffffffffffffffffffffffffffffff16906020019092919050505061083e565b6040518082815260200191505060405180910390f35b61015a610852565b604051808273ffffffffffffffffffffffffffffffffffffffff16815260200191505060405180910390f35b61018e610876565b6040518082815260200191505060405180910390f35b6101ac61089d565b604051808273ffffffffffffffffffffffffffffffffffffffff16815260200191505060405180910390f35b61021a600480360360208110156101ee57600080fd5b81019080803573ffffffffffffffffffffffffffffffffffffffff1690602001909291905050506108c3565b6040518082815260200191505060405180910390f35b6102e96004803603602081101561024657600080fd5b810190808035906020019064010000000081111561026357600080fd5b82018360208201111561027557600080fd5b8035906020019184600183028401116401000000008311171561029757600080fd5b91908080601f016020809104026020016040519081016040528093929190818152602001838380828437600081840152601f19601f820116905080830192505050505050509192919290505050610926565b6040518082815260200191505060405180910390f35b60008061030b33610a5a565b905060007f91d1777781884d03a6757a803996e38de2a42967fb37eeaca72729271025a9e260001b82604051602001808381526020018281526020019250505060405160208183030381529060405280519060200120905060008060009054906101000a900473ffffffffffffffffffffffffffffffffffffffff1673ffffffffffffffffffffffffffffffffffffffff166302571be3836040518263ffffffff1660e01b81526004018082815260200191505060206040518083038186803b1580156103d757600080fd5b505afa1580156103eb573d6000803e3d6000fd5b505050506040513d602081101561040157600080fd5b81019080805190602001909291905050509050600073ffffffffffffffffffffffffffffffffffffffff168573ffffffffffffffffffffffffffffffffffffffff1614158015610528575060008054906101000a900473ffffffffffffffffffffffffffffffffffffffff1673ffffffffffffffffffffffffffffffffffffffff16630178b8bf836040518263ffffffff1660e01b81526004018082815260200191505060206040518083038186803b1580156104bd57600080fd5b505afa1580156104d1573d6000803e3d6000fd5b505050506040513d60208110156104e757600080fd5b810190808051906020019092919050505073ffffffffffffffffffffffffffffffffffffffff168573ffffffffffffffffffffffffffffffffffffffff1614155b15610706573073ffffffffffffffffffffffffffffffffffffffff168173ffffffffffffffffffffffffffffffffffffffff161461065c5760008054906101000a900473ffffffffffffffffffffffffffffffffffffffff1673ffffffffffffffffffffffffffffffffffffffff166306ab59237f91d1777781884d03a6757a803996e38de2a42967fb37eeaca72729271025a9e260001b85306040518463ffffffff1660e01b8152600401808481526020018381526020018273ffffffffffffffffffffffffffffffffffffffff1681526020019350505050602060405180830381600087803b15801561061c57600080fd5b505af1158015610630573d6000803e3d6000fd5b505050506040513d602081101561064657600080fd5b8101908080519060200190929190505050503090505b60008054906101000a900473ffffffffffffffffffffffffffffffffffffffff1673ffffffffffffffffffffffffffffffffffffffff16631896f70a83876040518363ffffffff1660e01b8152600401808381526020018273ffffffffffffffffffffffffffffffffffffffff16815260200192505050600060405180830381600087803b1580156106ed57600080fd5b505af1158015610701573d6000803e3d6000fd5b505050505b8573ffffffffffffffffffffffffffffffffffffffff168173ffffffffffffffffffffffffffffffffffffffff16146108325760008054906101000a900473ffffffffffffffffffffffffffffffffffffffff1673ffffffffffffffffffffffffffffffffffffffff166306ab59237f91d1777781884d03a6757a803996e38de2a42967fb37eeaca72729271025a9e260001b85896040518463ffffffff1660e01b8152600401808481526020018381526020018273ffffffffffffffffffffffffffffffffffffffff1681526020019350505050602060405180830381600087803b1580156107f557600080fd5b505af1158015610809573d6000803e3d6000fd5b505050506040513d602081101561081f57600080fd5b8101908080519060200190929190505050505b81935050505092915050565b600061084b8260006102ff565b9050919050565b60008054906101000a900473ffffffffffffffffffffffffffffffffffffffff1681565b7f91d1777781884d03a6757a803996e38de2a42967fb37eeaca72729271025a9e260001b81565b600160009054906101000a900473ffffffffffffffffffffffffffffffffffffffff1681565b60007f91d1777781884d03a6757a803996e38de2a42967fb37eeaca72729271025a9e260001b6108f283610a5a565b6040516020018083815260200182815260200192505050604051602081830303815290604052805190602001209050919050565b60008061095530600160009054906101000a900473ffffffffffffffffffffffffffffffffffffffff166102ff565b9050600160009054906101000a900473ffffffffffffffffffffffffffffffffffffffff1673ffffffffffffffffffffffffffffffffffffffff16637737221382856040518363ffffffff1660e01b81526004018083815260200180602001828103825283818151815260200191508051906020019080838360005b838110156109ec5780820151818401526020810190506109d1565b50505050905090810190601f168015610a195780820380516001836020036101000a031916815260200191505b509350505050600060405180830381600087803b158015610a3957600080fd5b505af1158015610a4d573d6000803e3d6000fd5b5050505080915050919050565b60007f303132333435363738396162636465660000000000000000000000000000000060285b6000811115610ab65760018103905081600f85161a815360108404935060018103905081600f85161a8153601084049350610a80565b50602860002091505091905056fea264697066735822122001eb0fe3b1620750d92f9c3097f105d2b8c1c9af21f95212691c597ad2021ba364736f6c63430007040033",
  "immutableReferences": {},
  "source": "pragma solidity ^0.7.0;\n\nimport \"./ENS.sol\";\n\nabstract contract NameResolver {\n    function setName(bytes32 node, string memory name) public virtual;\n}\n\ncontract ReverseRegistrar {\n    // namehash('addr.reverse')\n    bytes32 public constant ADDR_REVERSE_NODE = 0x91d1777781884d03a6757a803996e38de2a42967fb37eeaca72729271025a9e2;\n\n    ENS public ens;\n    NameResolver public defaultResolver;\n\n    /**\n     * @dev Constructor\n     * @param ensAddr The address of the ENS registry.\n     * @param resolverAddr The address of the default reverse resolver.\n     */\n    constructor(ENS ensAddr, NameResolver resolverAddr) public {\n        ens = ensAddr;\n        defaultResolver = resolverAddr;\n\n        // Assign ownership of the reverse record to our deployer\n        ReverseRegistrar oldRegistrar = ReverseRegistrar(ens.owner(ADDR_REVERSE_NODE));\n        if (address(oldRegistrar) != address(0x0)) {\n            oldRegistrar.claim(msg.sender);\n        }\n    }\n\n    /**\n     * @dev Transfers ownership of the reverse ENS record associated with the\n     *      calling account.\n     * @param owner The address to set as the owner of the reverse record in ENS.\n     * @return The ENS node hash of the reverse record.\n     */\n    function claim(address owner) public returns (bytes32) {\n        return claimWithResolver(owner, address(0x0));\n    }\n\n    /**\n     * @dev Transfers ownership of the reverse ENS record associated with the\n     *      calling account.\n     * @param owner The address to set as the owner of the reverse record in ENS.\n     * @param resolver The address of the resolver to set; 0 to leave unchanged.\n     * @return The ENS node hash of the reverse record.\n     */\n    function claimWithResolver(address owner, address resolver) public returns (bytes32) {\n        bytes32 label = sha3HexAddress(msg.sender);\n        bytes32 node = keccak256(abi.encodePacked(ADDR_REVERSE_NODE, label));\n        address currentOwner = ens.owner(node);\n\n        // Update the resolver if required\n        if (resolver != address(0x0) && resolver != ens.resolver(node)) {\n            // Transfer the name to us first if it's not already\n            if (currentOwner != address(this)) {\n                ens.setSubnodeOwner(ADDR_REVERSE_NODE, label, address(this));\n                currentOwner = address(this);\n            }\n            ens.setResolver(node, resolver);\n        }\n\n        // Update the owner if required\n        if (currentOwner != owner) {\n            ens.setSubnodeOwner(ADDR_REVERSE_NODE, label, owner);\n        }\n\n        return node;\n    }\n\n    /**\n     * @dev Sets the `name()` record for the reverse ENS record associated with\n     * the calling account. First updates the resolver to the default reverse\n     * resolver if necessary.\n     * @param name The name to set for this address.\n     * @return The ENS node hash of the reverse record.\n     */\n    function setName(string memory name) public returns (bytes32) {\n        bytes32 node = claimWithResolver(address(this), address(defaultResolver));\n        defaultResolver.setName(node, name);\n        return node;\n    }\n\n    /**\n     * @dev Returns the node hash for a given account's reverse records.\n     * @param addr The address to hash\n     * @return The ENS node hash.\n     */\n    function node(address addr) public pure returns (bytes32) {\n        return keccak256(abi.encodePacked(ADDR_REVERSE_NODE, sha3HexAddress(addr)));\n    }\n\n    /**\n     * @dev An optimised function to compute the sha3 of the lower-case\n     *      hexadecimal representation of an Ethereum address.\n     * @param addr The address to hash\n     * @return ret The SHA3 hash of the lower-case hexadecimal encoding of the\n     *         input address.\n     */\n    function sha3HexAddress(address addr) private pure returns (bytes32 ret) {\n        addr;\n        ret; // Stop warning us about unused variables\n        assembly {\n            let lookup := 0x3031323334353637383961626364656600000000000000000000000000000000\n\n            for { let i := 40 } gt(i, 0) { } {\n                i := sub(i, 1)\n                mstore8(i, byte(and(addr, 0xf), lookup))\n                addr := div(addr, 0x10)\n                i := sub(i, 1)\n                mstore8(i, byte(and(addr, 0xf), lookup))\n                addr := div(addr, 0x10)\n            }\n\n            ret := keccak256(0, 40)\n        }\n    }\n}\n",
  "sourcePath": "/home/sniffnoy/truffle/ens/contracts/ReverseRegistrar.sol",
  "compiler": {
    "name": "solc",
    "version": "0.7.4+commit.3f05b770.Emscripten.clang"
  },
  "schemaVersion": "3.4.11",
  "updatedAt": "2022-12-07T05:57:04.351Z",
  "devdoc": {
    "kind": "dev",
    "methods": {
      "claim(address)": {
        "details": "Transfers ownership of the reverse ENS record associated with the      calling account.",
        "params": {
          "owner": "The address to set as the owner of the reverse record in ENS."
        },
        "returns": {
          "_0": "The ENS node hash of the reverse record."
        }
      },
      "claimWithResolver(address,address)": {
        "details": "Transfers ownership of the reverse ENS record associated with the      calling account.",
        "params": {
          "owner": "The address to set as the owner of the reverse record in ENS.",
          "resolver": "The address of the resolver to set; 0 to leave unchanged."
        },
        "returns": {
          "_0": "The ENS node hash of the reverse record."
        }
      },
      "constructor": {
        "details": "Constructor",
        "params": {
          "ensAddr": "The address of the ENS registry.",
          "resolverAddr": "The address of the default reverse resolver."
        }
      },
      "node(address)": {
        "details": "Returns the node hash for a given account's reverse records.",
        "params": {
          "addr": "The address to hash"
        },
        "returns": {
          "_0": "The ENS node hash."
        }
      },
      "setName(string)": {
        "details": "Sets the `name()` record for the reverse ENS record associated with the calling account. First updates the resolver to the default reverse resolver if necessary.",
        "params": {
          "name": "The name to set for this address."
        },
        "returns": {
          "_0": "The ENS node hash of the reverse record."
        }
      }
    },
    "version": 1
  },
  "userdoc": {
    "kind": "user",
    "methods": {},
    "version": 1
  }
}