{
  "contractName": "Sample",
  "abi": [
    {
      "constant": false,
      "inputs": [
        {
          "internalType": "uint256",
          "name": "x",
          "type": "uint256"
        }
      ],
      "name": "setValue",
      "outputs": [],
      "payable": false,
      "stateMutability": "nonpayable",
      "type": "function"
    },
    {
      "constant": true,
      "inputs": [
        {
          "internalType": "uint256",
          "name": "y",
          "type": "uint256"
        }
      ],
      "name": "getValue",
      "outputs": [
        {
          "internalType": "uint256",
          "name": "",
          "type": "uint256"
        }
      ],
      "payable": false,
      "stateMutability": "view",
      "type": "function"
    },
    {
      "constant": true,
      "inputs": [],
      "name": "getValue",
      "outputs": [
        {
          "internalType": "uint256",
          "name": "",
          "type": "uint256"
        }
      ],
      "payable": false,
      "stateMutability": "view",
      "type": "function"
    },
    {
      "constant": true,
      "inputs": [],
      "name": "bad",
      "outputs": [],
      "payable": false,
      "stateMutability": "pure",
      "type": "function"
    }
  ],
  "bytecode": "0x608060405234801561001057600080fd5b506101ad806100206000396000f3fe608060405234801561001057600080fd5b506004361061004c5760003560e01c80630ff4c91614610051578063209652551461009357806355241077146100b15780639c3674fc146100df575b600080fd5b61007d6004803603602081101561006757600080fd5b81019080803590602001909291905050506100e9565b6040518082815260200191505060405180910390f35b61009b6100f7565b6040518082815260200191505060405180910390f35b6100dd600480360360208110156100c757600080fd5b8101908080359060200190929190505050610100565b005b6100e761010a565b005b600081600054019050919050565b60008054905090565b8060008190555050565b6040517f08c379a00000000000000000000000000000000000000000000000000000000081526004018080602001828103825260118152602001807f596f75206172652061206661696c75726500000000000000000000000000000081525060200191505060405180910390fdfea265627a7a72315820e2047046fdef5e749da7bc321d8f19f20d0f663f5d635c61c1e785ef333aaa5364736f6c63430005100032",
  "source": "// SPDX-License-Identifier: MIT\npragma solidity 0.5.16;\n\ncontract Sample {\n  uint storedData;\n\n  function setValue(uint x) public {\n    storedData = x;\n  }\n\n  function getValue() public view returns (uint) {\n    return storedData;\n  }\n\n  function getValue(uint y) public view returns (uint) {\n    return storedData + y;\n  }\n\n  function bad() public pure {\n    revert(\"You are a failure\");\n  }\n}",
  "sourcePath": "/Users/sukanyaparashar/Desktop/truffle/packages/truffle/test/sources/call/contracts/Sample.sol",
  "compiler": {
    "name": "solc",
    "version": "0.5.16+commit.9c3226ce.Emscripten.clang"
  },
  "schemaVersion": "3.4.10",
  "updatedAt": "2022-11-11T16:24:29.119Z",
  "devdoc": {
    "methods": {}
  },
  "userdoc": {
    "methods": {}
  }
}