{
  "contractName": "MagicSquare",
  "abi": [
    {
      "constant": false,
      "inputs": [
        {
          "name": "n",
          "type": "uint256"
        }
      ],
      "name": "generateMagicSquare",
      "outputs": [],
      "payable": false,
      "stateMutability": "nonpayable",
      "type": "function"
    },
    {
      "constant": true,
      "inputs": [
        {
          "components": [
            {
              "name": "rows",
              "type": "uint256[][]"
            },
            {
              "name": "n",
              "type": "uint256"
            }
          ],
          "name": "square",
          "type": "tuple"
        }
      ],
      "name": "getSquare",
      "outputs": [
        {
          "components": [
            {
              "name": "rows",
              "type": "uint256[][]"
            },
            {
              "name": "n",
              "type": "uint256"
            }
          ],
          "name": "square",
          "type": "tuple"
        }
      ],
      "payable": false,
      "stateMutability": "view",
      "type": "function"
    },
    {
      "constant": false,
      "inputs": [
        {
          "components": [
            {
              "name": "rows",
              "type": "uint256[][]"
            },
            {
              "name": "n",
              "type": "uint256"
            }
          ],
          "name": "square",
          "type": "tuple"
        }
      ],
      "name": "save",
      "outputs": [],
      "payable": false,
      "stateMutability": "nonpayable",
      "type": "function"
    }
  ],
  "bytecode": "0x608060405234801561001057600080fd5b50610cf4806100206000396000f3fe608060405234801561001057600080fd5b50600436106100415760003560e01c80638b213ffc146100465780638dbbe62514610062578063f117a19314610080575b600080fd5b610060600480360361005b9190810190610940565b61009c565b005b61006a61018a565b6040516100779190610b45565b60405180910390f35b61009a600480360361009591908101906109c2565b61024d565b005b6000808260200151600060010181905550826020015160008001816100c191906104fc565b50600091505b82602001518210156101855782602001516000800183815481106100e757fe5b90600052602060002001816100fc9190610528565b50600090505b8260200151811015610178578260000151828151811061011e57fe5b6020026020010151818151811061013157fe5b602002602001015160008001838154811061014857fe5b90600052602060002001828154811061015d57fe5b90600052602060002001819055508080600101915050610102565b81806001019250506100c7565b505050565b610192610554565b600060405180604001604052908160008201805480602002602001604051908101604052809291908181526020016000905b828210156102365783829060005260206000200180548060200260200160405190810160405280929190818152602001828054801561022257602002820191906000526020600020905b81548152602001906001019080831161020e575b5050505050815260200190600101906101c4565b505050508152602001600182015481525050905090565b6060610257610554565b60008060006040518060400160405280602081526020017f6c657420757320636f6e7374727563742061206d61676963207371756172653a815250945073__SquareLib_____________________________63fe4b84df876040518263ffffffff1660e01b81526004016102cb9190610b67565b60006040518083038186803b1580156102e357600080fd5b505af41580156102f7573d6000803e3d6000fd5b505050506040513d6000823e3d601f19601f820116820180604052506103209190810190610981565b9350600092506002868161033057fe5b049150600190505b85860281116103715761035883838387610413909392919063ffffffff16565b8093508194508295505050508080600101915050610338565b3073ffffffffffffffffffffffffffffffffffffffff16638b213ffc856040518263ffffffff1660e01b81526004016103aa9190610b45565b600060405180830381600087803b1580156103c457600080fd5b505af11580156103d8573d6000803e3d6000fd5b505050506040518060600160405280602e8152602001610c8d602e91396002908051906020019061040a92919061056e565b50505050505050565b6000806000808760000151878151811061042957fe5b6020026020010151868151811061043c57fe5b602002602001015114610489578660200151600287018161045957fe5b0692508660200151600186896020015101038161047257fe5b0691506001840390508282829250925092506104f2565b838760000151878151811061049a57fe5b602002602001015186815181106104ad57fe5b602002602001018181525050866020015160018789602001510103816104cf57fe5b069250866020015160018601816104e257fe5b0691508390508282829250925092505b9450945094915050565b8154818355818111156105235781836000526020600020918201910161052291906105ee565b5b505050565b81548183558181111561054f5781836000526020600020918201910161054e919061061a565b5b505050565b604051806040016040528060608152602001600081525090565b828054600181600116156101000203166002900490600052602060002090601f016020900481019282601f106105af57805160ff19168380011785556105dd565b828001600101855582156105dd579182015b828111156105dc5782518255916020019190600101906105c1565b5b5090506105ea919061061a565b5090565b61061791905b80821115610613576000818161060a919061063f565b506001016105f4565b5090565b90565b61063c91905b80821115610638576000816000905550600101610620565b5090565b90565b508054600082559060005260206000209081019061065d919061061a565b50565b600082601f83011261067157600080fd5b813561068461067f82610baf565b610b82565b9150818183526020840193506020810190508360005b838110156106ca57813586016106b08882610748565b84526020840193506020830192505060018101905061069a565b5050505092915050565b600082601f8301126106e557600080fd5b81516106f86106f382610baf565b610b82565b9150818183526020840193506020810190508360005b8381101561073e578151860161072488826107cb565b84526020840193506020830192505060018101905061070e565b5050505092915050565b600082601f83011261075957600080fd5b813561076c61076782610bd7565b610b82565b9150818183526020840193506020810190508385602084028201111561079157600080fd5b60005b838110156107c157816107a78882610916565b845260208401935060208301925050600181019050610794565b5050505092915050565b600082601f8301126107dc57600080fd5b81516107ef6107ea82610bd7565b610b82565b9150818183526020840193506020810190508385602084028201111561081457600080fd5b60005b83811015610844578161082a888261092b565b845260208401935060208301925050600181019050610817565b5050505092915050565b60006040828403121561086057600080fd5b61086a6040610b82565b9050600082013567ffffffffffffffff81111561088657600080fd5b61089284828501610660565b60008301525060206108a684828501610916565b60208301525092915050565b6000604082840312156108c457600080fd5b6108ce6040610b82565b9050600082015167ffffffffffffffff8111156108ea57600080fd5b6108f6848285016106d4565b600083015250602061090a8482850161092b565b60208301525092915050565b60008135905061092581610c75565b92915050565b60008151905061093a81610c75565b92915050565b60006020828403121561095257600080fd5b600082013567ffffffffffffffff81111561096c57600080fd5b6109788482850161084e565b91505092915050565b60006020828403121561099357600080fd5b600082015167ffffffffffffffff8111156109ad57600080fd5b6109b9848285016108b2565b91505092915050565b6000602082840312156109d457600080fd5b60006109e284828501610916565b91505092915050565b60006109f78383610a8c565b905092915050565b6000610a0b8383610b27565b60208301905092915050565b6000610a2282610c19565b610a2c8185610c49565b935083602082028501610a3e85610bff565b8060005b85811015610a7a5784840389528151610a5b85826109eb565b9450610a6683610c2f565b925060208a01995050600181019050610a42565b50829750879550505050505092915050565b6000610a9782610c24565b610aa18185610c5a565b9350610aac83610c0c565b8060005b83811015610add578151610ac488826109ff565b9750610acf83610c3c565b925050600181019050610ab0565b5085935050505092915050565b60006040830160008301518482036000860152610b078282610a17565b9150506020830151610b1c6020860182610b27565b508091505092915050565b610b3081610c6b565b82525050565b610b3f81610c6b565b82525050565b60006020820190508181036000830152610b5f8184610aea565b905092915050565b6000602082019050610b7c6000830184610b36565b92915050565b6000604051905081810181811067ffffffffffffffff82111715610ba557600080fd5b8060405250919050565b600067ffffffffffffffff821115610bc657600080fd5b602082029050602081019050919050565b600067ffffffffffffffff821115610bee57600080fd5b602082029050602081019050919050565b6000602082019050919050565b6000602082019050919050565b600081519050919050565b600081519050919050565b6000602082019050919050565b6000602082019050919050565b600082825260208201905092915050565b600082825260208201905092915050565b6000819050919050565b610c7e81610c6b565b8114610c8957600080fd5b5056fe66696e616c6c792c206120646563656e7472616c697a6564206d6167696320737175617265207365727669636521a265627a7a723058200f0c3e8fe5a3a1acd916506bf818127749632aa46170ba992760d7e667cbd4c76c6578706572696d656e74616cf50037",
  "source": "pragma solidity >=0.5.6;\n\npragma experimental ABIEncoderV2;\n\nimport \"./SquareLib.sol\";\n\ncontract MagicSquare {\n  using SquareLib for SquareLib.MagicSquare;\n\n  SquareLib.MagicSquare storedSquare;\n  string storedGreeting;\n\n  function generateMagicSquare(uint n)\n    public\n  {\n    string memory greeting;\n    SquareLib.MagicSquare memory square;\n    uint256 x;\n    uint256 y;\n    uint256 i;\n\n    greeting = \"let us construct a magic square:\";\n    square = SquareLib.initialize(n);\n\n    x = 0;\n    y = n / 2;\n    for (i = 1; i <= n * n; i++) {\n      (x, y, i) = square.step(x, y, i);\n    }\n\n    this.save(square);\n    storedGreeting = \"finally, a decentralized magic square service!\";\n  }\n\n  function getSquare()\n    public\n    view\n    returns (SquareLib.MagicSquare memory square)\n  {\n    return storedSquare;\n  }\n\n  function save(SquareLib.MagicSquare memory square)\n    public\n  {\n    uint256 x;\n    uint256 y;\n\n    storedSquare.n = square.n;\n    storedSquare.rows.length = square.n;\n\n    for (x = 0; x < square.n; x++) {\n      storedSquare.rows[x].length = square.n;\n\n      for (y = 0; y < square.n; y++) {\n        storedSquare.rows[x][y] = square.rows[x][y];\n      }\n    }\n  }\n}\n",
  "sourcePath": "/Users/fainashalts/solidity-magic-square/contracts/MagicSquare.sol",
  "compiler": {
    "name": "solc",
    "version": "0.5.8+commit.23d335f2.Emscripten.clang"
  },
  "schemaVersion": "3.0.9",
  "updatedAt": "2019-05-16T17:59:03.210Z",
  "devdoc": {
    "methods": {}
  },
  "userdoc": {
    "methods": {}
  }
}