{
  "contractName": "MagicSquare",
  "abi": [
    {
      "constant": false,
      "inputs": [
        {
          "name": "n",
          "type": "uint256"
        }
      ],
      "name": "generateMagicSquare",
      "outputs": [],
      "payable": false,
      "stateMutability": "nonpayable",
      "type": "function",
      "signature": "0xf117a193"
    },
    {
      "constant": true,
      "inputs": [],
      "name": "getSquare",
      "outputs": [
        {
          "components": [
            {
              "name": "rows",
              "type": "uint256[][]"
            },
            {
              "name": "n",
              "type": "uint256"
            }
          ],
          "name": "square",
          "type": "tuple"
        }
      ],
      "payable": false,
      "stateMutability": "view",
      "type": "function",
      "signature": "0x8dbbe625"
    }
  ],
  "bytecode": "0x608060405234801561001057600080fd5b506108bb806100206000396000f3fe608060405234801561001057600080fd5b5060043610610053576000357c0100000000000000000000000000000000000000000000000000000000900480638dbbe62514610058578063f117a19314610076575b600080fd5b610060610092565b60405161006d91906107b1565b60405180910390f35b610090600480360361008b9190810190610645565b610155565b005b61009a6104cd565b600060405180604001604052908160008201805480602002602001604051908101604052809291908181526020016000905b8282101561013e5783829060005260206000200180548060200260200160405190810160405280929190818152602001828054801561012a57602002820191906000526020600020905b815481526020019060010190808311610116575b5050505050815260200190600101906100cc565b505050508152602001600182015481525050905090565b606061015f6104cd565b60008060006040518060400160405280602081526020017f6c657420757320636f6e7374727563742061206d61676963207371756172653a81525094506101a586610236565b935060009250600286816101b557fe5b049150600190505b85860281116101f6576101dd838383876102f6909392919063ffffffff16565b80935081945082955050505080806001019150506101bd565b6101ff846103df565b6040518060600160405280602e8152602001610854602e91396002908051906020019061022d9291906104e7565b50505050505050565b61023e6104cd565b600060405180604001604052808460405190808252806020026020018201604052801561027f57816020015b606081526020019060019003908161026a5790505b508152602001848152509150600090505b828110156102f057826040519080825280602002602001820160405280156102c75781602001602082028038833980820191505090505b50826000015182815181106102d857fe5b60200260200101819052508080600101915050610290565b50919050565b6000806000808760000151878151811061030c57fe5b6020026020010151868151811061031f57fe5b60200260200101511461036c578660200151600287018161033c57fe5b0692508660200151600186896020015101038161035557fe5b0691506001840390508282829250925092506103d5565b838760000151878151811061037d57fe5b6020026020010151868151811061039057fe5b602002602001018181525050866020015160018789602001510103816103b257fe5b069250866020015160018601816103c557fe5b0691508390508282829250925092505b9450945094915050565b6000808260200151600060010181905550826020015160008001816104049190610567565b50600091505b82602001518210156104c857826020015160008001838154811061042a57fe5b906000526020600020018161043f9190610593565b50600090505b82602001518110156104bb578260000151828151811061046157fe5b6020026020010151818151811061047457fe5b602002602001015160008001838154811061048b57fe5b9060005260206000200182815481106104a057fe5b90600052602060002001819055508080600101915050610445565b818060010192505061040a565b505050565b604051806040016040528060608152602001600081525090565b828054600181600116156101000203166002900490600052602060002090601f016020900481019282601f1061052857805160ff1916838001178555610556565b82800160010185558215610556579182015b8281111561055557825182559160200191906001019061053a565b5b50905061056391906105bf565b5090565b81548183558181111561058e5781836000526020600020918201910161058d91906105e4565b5b505050565b8154818355818111156105ba578183600052602060002091820191016105b991906105bf565b5b505050565b6105e191905b808211156105dd5760008160009055506001016105c5565b5090565b90565b61060d91905b8082111561060957600081816106009190610610565b506001016105ea565b5090565b90565b508054600082559060005260206000209081019061062e91906105bf565b50565b600061063d8235610849565b905092915050565b60006020828403121561065757600080fd5b600061066584828501610631565b91505092915050565b600061067a838361070b565b905092915050565b600061068e83836107a2565b60208301905092915050565b60006106a5826107ed565b6106af818561081d565b9350836020820285016106c1856107d3565b60005b848110156106fa5783830388526106dc83835161066e565b92506106e782610803565b91506020880197506001810190506106c4565b508196508694505050505092915050565b6000610716826107f8565b610720818561082e565b935061072b836107e0565b60005b8281101561075957610741868351610682565b955061074c82610810565b915060018101905061072e565b50849250505092915050565b60006040830160008301518482036000860152610782828261069a565b915050602083015161079760208601826107a2565b508091505092915050565b6107ab8161083f565b82525050565b600060208201905081810360008301526107cb8184610765565b905092915050565b6000602082019050919050565b6000602082019050919050565b600081519050919050565b600081519050919050565b6000602082019050919050565b6000602082019050919050565b600082825260208201905092915050565b600082825260208201905092915050565b6000819050919050565b600081905091905056fe66696e616c6c792c206120646563656e7472616c697a6564206d6167696320737175617265207365727669636521a265627a7a723058205770ccbc62a76d279be9effb698622195748d0131617c2f61c328bf49cf880196c6578706572696d656e74616cf50037",
  "source": "pragma solidity >=0.4.18;\npragma experimental ABIEncoderV2;\n\nimport \"./SquareLib.sol\";\n\ncontract MagicSquare {\n  using SquareLib for SquareLib.MagicSquare;\n\n  SquareLib.MagicSquare storedSquare;\n  string storedGreeting;\n\n  function generateMagicSquare(uint n)\n    public\n  {\n    string memory greeting;\n    SquareLib.MagicSquare memory square;\n    uint256 x;\n    uint256 y;\n    uint256 i;\n\n    greeting = \"let us construct a magic square:\";\n    square = SquareLib.initialize(n);\n\n    x = 0;\n    y = n / 2;\n    for (i = 1; i <= n * n; i++) {\n      (x, y, i) = square.step(x, y, i);\n    }\n\n    save(square);\n    storedGreeting = \"finally, a decentralized magic square service!\";\n  }\n\n  function getSquare()\n    public\n    view\n    returns (SquareLib.MagicSquare memory square)\n  {\n    return storedSquare;\n  }\n\n  function save(SquareLib.MagicSquare memory square)\n    internal\n  {\n    uint256 x;\n    uint256 y;\n\n    storedSquare.n = square.n;\n    storedSquare.rows.length = square.n;\n\n    for (x = 0; x < square.n; x++) {\n      storedSquare.rows[x].length = square.n;\n\n      for (y = 0; y < square.n; y++) {\n        storedSquare.rows[x][y] = square.rows[x][y];\n      }\n    }\n  }\n}\n",
  "sourcePath": "/Users/gnidan/src/work/magic-square/contracts/MagicSquare.sol",
  "compiler": {
    "name": "solc",
    "version": "0.5.7+commit.6da8b019.Emscripten.clang"
  },
  "schemaVersion": "3.0.8",
  "updatedAt": "2019-04-25T23:36:04.615Z",
  "devdoc": {
    "methods": {}
  },
  "userdoc": {
    "methods": {}
  }
}