{
  "contractName": "MagicSquare",
  "abi": [
    {
      "inputs": [],
      "stateMutability": "nonpayable",
      "type": "constructor"
    },
    {
      "inputs": [
        {
          "internalType": "uint256",
          "name": "n",
          "type": "uint256"
        }
      ],
      "name": "generateMagicSquare",
      "outputs": [],
      "stateMutability": "nonpayable",
      "type": "function"
    }
  ],
  "bytecode": "0x60a060405234801561001057600080fd5b50600360808181525050608051610bc361003560003960006103b30152610bc36000f3fe608060405234801561001057600080fd5b506004361061002b5760003560e01c8063f117a19314610030575b600080fd5b61004a600480360381019061004591906107e5565b61004c565b005b6060610056610489565b6000806040518060400160405280602081526020017f6c657420757320636f6e7374727563742061206d61676963207371756172653a815250935073__SquareLib_____________________________63fe4b84df866040518263ffffffff1660e01b81526004016100c8919061081d565b60006040518083038186803b1580156100e057600080fd5b505af41580156100f4573d6000803e3d6000fd5b505050506040513d6000823e3d601f19601f8201168201806040525081019061011d91906107a4565b9250600091506002856101309190610917565b90506000600190505b85866101459190610948565b811161018157610162838383876101c1909392919063ffffffff16565b809350819450829550505050808061017990610a12565b915050610139565b5061018b83610393565b6040518060600160405280602e8152602001610b60602e9139600290805190602001906101b99291906104a3565b505050505050565b60008060008087600001518781518110610204577f4e487b7100000000000000000000000000000000000000000000000000000000600052603260045260246000fd5b60200260200101518681518110610244577f4e487b7100000000000000000000000000000000000000000000000000000000600052603260045260246000fd5b6020026020010151146102b057866020015160028761026391906108c1565b61026d9190610a5b565b92508660200151600186896020015161028691906108c1565b61029091906109a2565b61029a9190610a5b565b91506001846102a991906109a2565b9050610389565b83876000015187815181106102ee577f4e487b7100000000000000000000000000000000000000000000000000000000600052603260045260246000fd5b6020026020010151868151811061032e577f4e487b7100000000000000000000000000000000000000000000000000000000600052603260045260246000fd5b6020026020010181815250508660200151600187896020015161035191906108c1565b61035b91906109a2565b6103659190610a5b565b9250866020015160018661037991906108c1565b6103839190610a5b565b91508390505b9450945094915050565b80602001516000600101819055506000800160006103b19190610529565b7f0000000000000000000000000000000000000000000000000000000000000000600080018054905011156104865760005b8160200151811015610484576000800182600001518281518110610430577f4e487b7100000000000000000000000000000000000000000000000000000000600052603260045260246000fd5b602002602001015190806001815401808255809150506001900390600052602060002001600090919091909150908051906020019061047092919061054a565b50808061047c90610a12565b9150506103e3565b505b50565b604051806040016040528060608152602001600081525090565b8280546104af906109e0565b90600052602060002090601f0160209004810192826104d15760008555610518565b82601f106104ea57805160ff1916838001178555610518565b82800160010185558215610518579182015b828111156105175782518255916020019190600101906104fc565b5b5090506105259190610597565b5090565b508054600082559060005260206000209081019061054791906105b4565b50565b828054828255906000526020600020908101928215610586579160200282015b8281111561058557825182559160200191906001019061056a565b5b5090506105939190610597565b5090565b5b808211156105b0576000816000905550600101610598565b5090565b5b808211156105d457600081816105cb91906105d8565b506001016105b5565b5090565b50805460008255906000526020600020908101906105f69190610597565b50565b600061060c61060784610869565b610838565b9050808382526020820190508260005b8581101561064c578151850161063288826106ec565b84526020840193506020830192505060018101905061061c565b5050509392505050565b600061066961066484610895565b610838565b9050808382526020820190508285602086028201111561068857600080fd5b60005b858110156106b8578161069e888261078f565b84526020840193506020830192505060018101905061068b565b5050509392505050565b600082601f8301126106d357600080fd5b81516106e38482602086016105f9565b91505092915050565b600082601f8301126106fd57600080fd5b815161070d848260208601610656565b91505092915050565b60006040828403121561072857600080fd5b6107326040610838565b9050600082015167ffffffffffffffff81111561074e57600080fd5b61075a848285016106c2565b600083015250602061076e8482850161078f565b60208301525092915050565b60008135905061078981610b48565b92915050565b60008151905061079e81610b48565b92915050565b6000602082840312156107b657600080fd5b600082015167ffffffffffffffff8111156107d057600080fd5b6107dc84828501610716565b91505092915050565b6000602082840312156107f757600080fd5b60006108058482850161077a565b91505092915050565b610817816109d6565b82525050565b6000602082019050610832600083018461080e565b92915050565b6000604051905081810181811067ffffffffffffffff8211171561085f5761085e610b19565b5b8060405250919050565b600067ffffffffffffffff82111561088457610883610b19565b5b602082029050602081019050919050565b600067ffffffffffffffff8211156108b0576108af610b19565b5b602082029050602081019050919050565b60006108cc826109d6565b91506108d7836109d6565b9250827fffffffffffffffffffffffffffffffffffffffffffffffffffffffffffffffff0382111561090c5761090b610a8c565b5b828201905092915050565b6000610922826109d6565b915061092d836109d6565b92508261093d5761093c610abb565b5b828204905092915050565b6000610953826109d6565b915061095e836109d6565b9250817fffffffffffffffffffffffffffffffffffffffffffffffffffffffffffffffff048311821515161561099757610996610a8c565b5b828202905092915050565b60006109ad826109d6565b91506109b8836109d6565b9250828210156109cb576109ca610a8c565b5b828203905092915050565b6000819050919050565b600060028204905060018216806109f857607f821691505b60208210811415610a0c57610a0b610aea565b5b50919050565b6000610a1d826109d6565b91507fffffffffffffffffffffffffffffffffffffffffffffffffffffffffffffffff821415610a5057610a4f610a8c565b5b600182019050919050565b6000610a66826109d6565b9150610a71836109d6565b925082610a8157610a80610abb565b5b828206905092915050565b7f4e487b7100000000000000000000000000000000000000000000000000000000600052601160045260246000fd5b7f4e487b7100000000000000000000000000000000000000000000000000000000600052601260045260246000fd5b7f4e487b7100000000000000000000000000000000000000000000000000000000600052602260045260246000fd5b7f4e487b7100000000000000000000000000000000000000000000000000000000600052604160045260246000fd5b610b51816109d6565b8114610b5c57600080fd5b5056fe66696e616c6c792c206120646563656e7472616c697a6564206d6167696320737175617265207365727669636521a2646970667358221220db21830e19c4a6f1398b9eb73d803802c8401dc0349fa0e373277637d3c6677664736f6c63430008000033",
  "immutableReferences": {
    "13": [
      {
        "length": 32,
        "start": 947
      }
    ]
  },
  "source": "//SPDX-License-Identifier: MIT\npragma solidity ^0.8.0;\n\nimport \"./SquareLib.sol\";\n\ncontract MagicSquare {\n  using SquareLib for SquareLib.MagicSquare;\n\n  SquareLib.MagicSquare storedSquare;\n  string storedGreeting;\n  uint256 immutable minimumSize;\n\n  constructor() public {\n    minimumSize = 3;\n  }\n\n  function generateMagicSquare(uint n)\n    public\n  {\n    string memory greeting;\n    SquareLib.MagicSquare memory square;\n    uint256 x;\n    uint256 y;\n\n    greeting = \"let us construct a magic square:\";\n    square = SquareLib.initialize(n);\n\n    x = 0;\n    y = n / 2;\n    for (uint256 i = 1; i <= n * n; i++) {\n      (x, y, i) = square.step(x, y, i);\n    }\n\n    save(square);\n    storedGreeting = \"finally, a decentralized magic square service!\";\n  }\n\n  function save(SquareLib.MagicSquare memory square)\n    internal\n  {\n\n    storedSquare.n = square.n;\n    delete storedSquare.rows;\n    if(storedSquare.rows.length > minimumSize) {\n      for (uint256 x = 0; x < square.n; x++) {\n        storedSquare.rows.push(square.rows[x]);\n      }\n    }\n  }\n}\n",
  "sourcePath": "/Users/fainashalts/magic-square-solc8/contracts/MagicSquare.sol",
  "compiler": {
    "name": "solc",
    "version": "0.8.0+commit.c7dfd78e.Emscripten.clang"
  },
  "schemaVersion": "3.0.9",
  "updatedAt": "",
  "networkType": "ethereum",
  "devdoc": {
    "kind": "dev",
    "methods": {},
    "version": 1
  },
  "userdoc": {
    "kind": "user",
    "methods": {},
    "version": 1
  }
}