{
  "contractName": "SquareLib",
  "abi": [
    {
      "inputs": [
        {
          "internalType": "uint256",
          "name": "n",
          "type": "uint256"
        }
      ],
      "name": "initialize",
      "outputs": [
        {
          "components": [
            {
              "internalType": "uint256[][]",
              "name": "rows",
              "type": "uint256[][]"
            },
            {
              "internalType": "uint256",
              "name": "n",
              "type": "uint256"
            }
          ],
          "internalType": "struct SquareLib.MagicSquare",
          "name": "square",
          "type": "tuple"
        }
      ],
      "stateMutability": "pure",
      "type": "function",
      "constant": true
    }
  ],
  "bytecode": "0x6104dd610053600b82828239805160001a607314610046577f4e487b7100000000000000000000000000000000000000000000000000000000600052600060045260246000fd5b30600052607381538281f3fe73000000000000000000000000000000000000000030146080604052600436106100355760003560e01c8063fe4b84df1461003a575b600080fd5b610054600480360381019061004f9190610206565b61006a565b604051610061919061037a565b60405180910390f35b6100726101d7565b60405180604001604052808367ffffffffffffffff8111156100bd577f4e487b7100000000000000000000000000000000000000000000000000000000600052604160045260246000fd5b6040519080825280602002602001820160405280156100f057816020015b60608152602001906001900390816100db5790505b50815260200183815250905060005b828110156101d1578267ffffffffffffffff811115610147577f4e487b7100000000000000000000000000000000000000000000000000000000600052604160045260246000fd5b6040519080825280602002602001820160405280156101755781602001602082028036833780820191505090505b50826000015182815181106101b3577f4e487b7100000000000000000000000000000000000000000000000000000000600052603260045260246000fd5b602002602001018190525080806101c990610418565b9150506100ff565b50919050565b604051806040016040528060608152602001600081525090565b60008135905061020081610490565b92915050565b60006020828403121561021857600080fd5b6000610226848285016101f1565b91505092915050565b600061023b83836102d0565b905092915050565b600061024f838361036b565b60208301905092915050565b6000610266826103bc565b61027081856103ec565b9350836020820285016102828561039c565b8060005b858110156102be578484038952815161029f858261022f565b94506102aa836103d2565b925060208a01995050600181019050610286565b50829750879550505050505092915050565b60006102db826103c7565b6102e581856103fd565b93506102f0836103ac565b8060005b838110156103215781516103088882610243565b9750610313836103df565b9250506001810190506102f4565b5085935050505092915050565b6000604083016000830151848203600086015261034b828261025b565b9150506020830151610360602086018261036b565b508091505092915050565b6103748161040e565b82525050565b60006020820190508181036000830152610394818461032e565b905092915050565b6000819050602082019050919050565b6000819050602082019050919050565b600081519050919050565b600081519050919050565b6000602082019050919050565b6000602082019050919050565b600082825260208201905092915050565b600082825260208201905092915050565b6000819050919050565b60006104238261040e565b91507fffffffffffffffffffffffffffffffffffffffffffffffffffffffffffffffff82141561045657610455610461565b5b600182019050919050565b7f4e487b7100000000000000000000000000000000000000000000000000000000600052601160045260246000fd5b6104998161040e565b81146104a457600080fd5b5056fea264697066735822122040faa561f7bdc66b612b62c9f2f3b8f2f200fc630b7400cbc6d6bc2279fbbd9464736f6c63430008000033",
  "immutableReferences": {},
  "source": "//SPDX-License-Identifier: MIT\npragma solidity ^0.8.0;\n\nlibrary SquareLib {\n  struct MagicSquare {\n    uint256[][] rows;\n    uint256 n;\n  }\n\n  function initialize(uint256 n)\n    external\n    pure\n    returns (MagicSquare memory square)\n  {\n    square = MagicSquare({\n      rows: new uint256[][](n),\n      n: n\n    });\n\n    for (uint256 i = 0; i < n; i++) {\n      square.rows[i] = new uint256[](n);\n    }\n  }\n\n  function step(\n    MagicSquare memory square,\n    uint256 x,\n    uint256 y,\n    uint256 i\n  )\n    internal\n    pure\n    returns (\n      uint256 newX,\n      uint256 newY,\n      uint256 lastI\n    )\n  {\n    if (square.rows[x][y] != 0) {\n      newX = (x + 2) % square.n;\n      newY = (square.n + y - 1) % square.n;\n      lastI = i - 1;\n    }\n    else {\n      square.rows[x][y] = i;\n      newX = (square.n + x - 1) % square.n;\n      newY = (y + 1) % square.n;\n      lastI = i;\n    }\n  }\n}\n",
  "sourcePath": "/Users/fainashalts/magic-square-solc8/contracts/SquareLib.sol",
  "compiler": {
    "name": "solc",
    "version": "0.8.0+commit.c7dfd78e.Emscripten.clang"
  },
  "schemaVersion": "3.0.9",
  "updatedAt": "",
  "networkType": "ethereum",
  "devdoc": {
    "kind": "dev",
    "methods": {},
    "version": 1
  },
  "userdoc": {
    "kind": "user",
    "methods": {},
    "version": 1
  }
}