{
  "contractName": "SquareLib",
  "abi": [
    {
      "constant": true,
      "inputs": [
        {
          "name": "n",
          "type": "uint256"
        }
      ],
      "name": "initialize",
      "outputs": [
        {
          "components": [
            {
              "name": "rows",
              "type": "uint256[][]"
            },
            {
              "name": "n",
              "type": "uint256"
            }
          ],
          "name": "square",
          "type": "tuple"
        }
      ],
      "payable": false,
      "stateMutability": "pure",
      "type": "function"
    }
  ],
  "bytecode": "0x6103b6610026600b82828239805160001a60731461001957fe5b30600052607381538281f3fe73000000000000000000000000000000000000000030146080604052600436106100355760003560e01c8063fe4b84df1461003a575b600080fd5b610054600480360361004f9190810190610159565b61006a565b60405161006191906102cd565b60405180910390f35b61007261012a565b60006040518060400160405280846040519080825280602002602001820160405280156100b357816020015b606081526020019060019003908161009e5790505b508152602001848152509150600090505b8281101561012457826040519080825280602002602001820160405280156100fb5781602001602082028038833980820191505090505b508260000151828151811061010c57fe5b602002602001018190525080806001019150506100c4565b50919050565b604051806040016040528060608152602001600081525090565b60008135905061015381610365565b92915050565b60006020828403121561016b57600080fd5b600061017984828501610144565b91505092915050565b600061018e8383610223565b905092915050565b60006101a283836102be565b60208301905092915050565b60006101b982610309565b6101c38185610339565b9350836020820285016101d5856102ef565b8060005b8581101561021157848403895281516101f28582610182565b94506101fd8361031f565b925060208a019950506001810190506101d9565b50829750879550505050505092915050565b600061022e82610314565b610238818561034a565b9350610243836102fc565b8060005b8381101561027457815161025b8882610196565b97506102668361032c565b925050600181019050610247565b5085935050505092915050565b6000604083016000830151848203600086015261029e82826101ae565b91505060208301516102b360208601826102be565b508091505092915050565b6102c78161035b565b82525050565b600060208201905081810360008301526102e78184610281565b905092915050565b6000602082019050919050565b6000602082019050919050565b600081519050919050565b600081519050919050565b6000602082019050919050565b6000602082019050919050565b600082825260208201905092915050565b600082825260208201905092915050565b6000819050919050565b61036e8161035b565b811461037957600080fd5b5056fea265627a7a72305820bdeb36fef4e4e60013e207952dbf47e7cc9299817cd78378be346bc9bb74dc916c6578706572696d656e74616cf50037",
  "source": "pragma solidity >=0.5.6;\npragma experimental ABIEncoderV2;\n\nlibrary SquareLib {\n  struct MagicSquare {\n    uint256[][] rows;\n    uint256 n;\n  }\n\n  function initialize(uint256 n)\n    external\n    pure\n    returns (MagicSquare memory square)\n  {\n    uint256 i;\n\n    square = MagicSquare({\n      rows: new uint256[][](n),\n      n: n\n    });\n\n    for (i = 0; i < n; i++) {\n      square.rows[i] = new uint256[](n);\n    }\n  }\n\n  function step(\n    MagicSquare memory square,\n    uint256 x,\n    uint256 y,\n    uint256 i\n  )\n    internal\n    pure\n    returns (\n      uint256 newX,\n      uint256 newY,\n      uint256 lastI\n    )\n  {\n    if (square.rows[x][y] != 0) {\n      newX = (x + 2) % square.n;\n      newY = (square.n + y - 1) % square.n;\n      lastI = i - 1;\n      return (newX, newY, lastI);\n    }\n\n    square.rows[x][y] = i;\n    newX = (square.n + x - 1) % square.n;\n    newY = (y + 1) % square.n;\n    lastI = i;\n    return (newX, newY, lastI);\n  }\n}\n\n",
  "sourcePath": "/Users/fainashalts/solidity-magic-square/contracts/SquareLib.sol",
  "compiler": {
    "name": "solc",
    "version": "0.5.8+commit.23d335f2.Emscripten.clang"
  },
  "schemaVersion": "3.0.11",
  "updatedAt": "2019-07-11T16:19:13.305Z",
  "devdoc": {
    "methods": {}
  },
  "userdoc": {
    "methods": {}
  }
}