{
  "contractName": "IsLibrary",
  "abi": [
    {
      "anonymous": false,
      "inputs": [
        {
          "indexed": false,
          "internalType": "uint256",
          "name": "eventID",
          "type": "uint256"
        }
      ],
      "name": "IsLibraryEvent",
      "type": "event"
    },
    {
      "constant": true,
      "inputs": [],
      "name": "id",
      "outputs": [
        {
          "internalType": "string",
          "name": "",
          "type": "string"
        }
      ],
      "payable": false,
      "stateMutability": "view",
      "type": "function"
    }
  ],
  "bytecode": "0x6101ab610026600b82828239805160001a60731461001957fe5b30600052607381538281f3fe73000000000000000000000000000000000000000030146080604052600436106100405760003560e01c8063960e641a14610045578063af640d0f14610080575b600080fd5b81801561005157600080fd5b5061007e6004803603602081101561006857600080fd5b8101908080359060200190929190505050610103565b005b61008861013d565b6040518080602001828103825283818151815260200191508051906020019080838360005b838110156100c85780820151818401526020810190506100ad565b50505050905090810190601f1680156100f55780820380516001836020036101000a031916815260200191505b509250505060405180910390f35b7faffb5af5b663e5965f4dfa23d652f3ca87b5396faa7229d29447e976514032db816040518082815260200191505060405180910390a150565b6040518060400160405280600981526020017f49734c69627261727900000000000000000000000000000000000000000000008152508156fea265627a7a72315820bc939ce0cd6cde85696bef5067f1b0dae166164f4501220945c1737d906ad48564736f6c63430005100032",
  "source": "pragma solidity ^0.5.0;\n\nlibrary IsLibrary {\n  string constant public id = 'IsLibrary';\n  event IsLibraryEvent(uint eventID);\n\n  function fireIsLibraryEvent(uint _id) public {\n    emit IsLibraryEvent(_id);\n  }\n}\n",
  "sourcePath": "/Users/tyler/projects/truffle/packages/deployer/test/sources/IsLibrary.sol",
  "compiler": {
    "name": "solc",
    "version": "0.5.16+commit.9c3226ce.Emscripten.clang"
  },
  "schemaVersion": "3.4.3",
  "updatedAt": "2021-11-15T21:00:44.605Z",
  "devdoc": {
    "methods": {}
  },
  "userdoc": {
    "methods": {}
  }
}