{
  "contractName": "Loops",
  "abi": [
    {
      "inputs": [],
      "payable": false,
      "stateMutability": "nonpayable",
      "type": "constructor"
    },
    {
      "constant": true,
      "inputs": [],
      "name": "id",
      "outputs": [
        {
          "internalType": "uint256",
          "name": "",
          "type": "uint256"
        }
      ],
      "payable": false,
      "stateMutability": "view",
      "type": "function"
    }
  ],
  "bytecode": "0x608060405234801561001057600080fd5b5060008090505b61271081101561003557806000819055508080600101915050610017565b506084806100446000396000f3fe6080604052348015600f57600080fd5b506004361060285760003560e01c8063af640d0f14602d575b600080fd5b60336049565b6040518082815260200191505060405180910390f35b6000548156fea265627a7a723158204e7eb679c5d472976556a2eea3c28d6bf6439cbdeb42577b1084afc171ff050364736f6c63430005100032",
  "source": "pragma solidity ^0.5.0;\n\n\ncontract Loops {\n  uint public id;\n  constructor() public {\n    for(uint i = 0; i < 10000; i++){\n      id = i;\n    }\n  }\n}\n",
  "sourcePath": "/Users/tyler/projects/truffle/packages/deployer/test/sources/Loop.sol",
  "compiler": {
    "name": "solc",
    "version": "0.5.16+commit.9c3226ce.Emscripten.clang"
  },
  "schemaVersion": "3.4.3",
  "updatedAt": "2021-11-15T21:00:44.606Z",
  "devdoc": {
    "methods": {}
  },
  "userdoc": {
    "methods": {}
  }
}