{
  "contractName": "UsesLibrary",
  "abi": [
    {
      "inputs": [],
      "payable": false,
      "stateMutability": "nonpayable",
      "type": "constructor"
    },
    {
      "anonymous": false,
      "inputs": [
        {
          "indexed": false,
          "internalType": "uint256",
          "name": "eventID",
          "type": "uint256"
        }
      ],
      "name": "UsesLibraryEvent",
      "type": "event"
    },
    {
      "constant": false,
      "inputs": [
        {
          "internalType": "uint256",
          "name": "id",
          "type": "uint256"
        }
      ],
      "name": "fireIsLibraryEvent",
      "outputs": [],
      "payable": false,
      "stateMutability": "nonpayable",
      "type": "function"
    },
    {
      "constant": false,
      "inputs": [
        {
          "internalType": "uint256",
          "name": "id",
          "type": "uint256"
        }
      ],
      "name": "fireUsesLibraryEvent",
      "outputs": [],
      "payable": false,
      "stateMutability": "nonpayable",
      "type": "function"
    }
  ],
  "bytecode": "0x608060405234801561001057600080fd5b50610170806100206000396000f3fe608060405234801561001057600080fd5b50600436106100365760003560e01c806303cbcb6f1461003b578063960e641a14610069575b600080fd5b6100676004803603602081101561005157600080fd5b8101908080359060200190929190505050610097565b005b6100956004803603602081101561007f57600080fd5b81019080803590602001909291905050506100d1565b005b7f11c44225d0ee07f313bff172963ae48646cd4c52334799f1da903a6674a96994816040518082815260200191505060405180910390a150565b73__IsLibrary_____________________________63960e641a826040518263ffffffff1660e01b81526004018082815260200191505060006040518083038186803b15801561012057600080fd5b505af4158015610134573d6000803e3d6000fd5b505050505056fea265627a7a723158200d8ae2c1f847b3c44cb78824c9de0918ad9d26587dcf530c3429ff5f7b53fefe64736f6c63430005100032",
  "source": "pragma solidity ^0.5.0;\n\nimport \"./IsLibrary.sol\";\n\ncontract UsesLibrary {\n\n  event UsesLibraryEvent(uint eventID);\n\n  constructor() public {}\n\n  function fireIsLibraryEvent(uint id) public {\n    IsLibrary.fireIsLibraryEvent(id);\n  }\n\n  function fireUsesLibraryEvent(uint id) public {\n    emit UsesLibraryEvent(id);\n  }\n}\n",
  "sourcePath": "/Users/tyler/projects/truffle/packages/deployer/test/sources/UsesLibrary.sol",
  "compiler": {
    "name": "solc",
    "version": "0.5.16+commit.9c3226ce.Emscripten.clang"
  },
  "schemaVersion": "3.4.3",
  "updatedAt": "2021-11-15T21:00:44.608Z",
  "devdoc": {
    "methods": {}
  },
  "userdoc": {
    "methods": {}
  }
}